:100000000C94C9000C94E6000C94E6000C94E600F5
:100010000C94E6000C94E6000C94E6000C94E600C8
:100020000C94E6000C94E6000C94E6000C94E600B8
:100030000C94E6000C94E6000C94E6000C94E600A8
:100040000C94E6000C94E6000C94E6000C94E60098
:100050000C94E6000C94E6000C94E6000C94E60088
:100060000C94E6000C94E6000C94E6000C94E60078
:100070000C94E6000C94E6000C94E6000C94E60068
:100080000C94E6000C94E6000C94E6000C94E60058
:100090006E616E00696E660000407A10F35A00A02F
:1000A000724E18090010A5D4E80000E87648170041
:1000B00000E40B54020000CA9A3B000000E1F50581
:1000C000000080969800000040420F000000A086CB
:1000D00001000000102700000000E80300000000FD
:1000E0006400000000000A000000000001000000A1
:1000F00000002C76D888DC674F0823DFC1DFAE59BB
:10010000E1B1B796E5E3E453C63AE651997696E84D
:10011000E6C28426EB898C9B62ED407C6FFCEFBCD1
:100120009C9F40F2BAA56FA5F490055A2AF75C93FC
:100130006B6CF9676DC11BFCE0E40D47FEF520E632
:10014000B500D0ED902E0300943577050080841E15
:10015000080000204E0A000000C80C333333330F70
:10016000986E12831141EF8D2114893BE65516CF0D
:10017000FEE6DB18D1844B381BF77C1D901DA4BB19
:10018000E424203284725E228100C9F124ECA1E5CE
:100190003D2711241FBECFEFCDBFDFE3DEBF18E246
:1001A000A0E0B8E2E0E1F4E202C005900D92A233D3
:1001B000B107D9F728E2A2E3B8E201C01D92AA3C38
:1001C000B207E1F70E94EB000C94CE100C940000F3
:1001D0000E94680608950E94E80080E00E943905A8
:1001E00082E898E20E94DC04C2E8D8E2DF93CF9371
:1001F00080EA91E69F938F930E9498058CE898E29D
:100200009F938F9381EB91E69F938F930E94980524
:1002100085EA98E29F938F9385EC91E69F938F9365
:100220000E9498058CA59DA52EA53FA53F932F93D1
:100230009F938F938FED91E69F938F930E949805E4
:1002400088A599A52AA53BA53F932F939F938F93AC
:100250008AEF91E69F938F930E94980588A999A9A8
:100260002AA93BA93F932F939F938F9385E192E611
:100270009F938F930E94980588AD99AD2AAD3BADB1
:100280003F932F939F938F9381E392E69F938F9356
:100290000E949805C090C028D090C128E090C22844
:1002A000F090C32820E030E048EC52E4C701B601EA
:1002B0000E9482090E94F40984E6689FB00111241B
:1002C000072E000C880B990B0E94250A9B01AC019C
:1002D000C701B6010E9410090E94F409C62F20E050
:1002E00030E04AE754E4C701B6010E9482092DB705
:1002F0003EB72C5D3F4F2DBF3EBF1F92CF939F93C4
:100300008F937F936F938CE492E69F938F930E94D9
:1003100098058DB79EB708968DBF9EBF8EB184603D
:100320008EB968EB7BE080E090E00E9495056BE67B
:1003300078E280E00E947A05CBE6D8E28881998154
:100340002A813B813F932F939F938F938AE692E676
:100350009F938F930E9498058C819D812E813F8170
:100360003F932F939F938F9389E792E69F938F9369
:100370000E949805888599852A853B853F932F9310
:100380009F938F9387E892E69F938F930E9498059F
:100390002DB73EB72E5E3F4F2DBF3EBFC0E0D0E031
:1003A00011C0FE01E559F74D84851F928F9387E9AF
:1003B00092E69F938F930E94980521960F900F903D
:1003C0000F900F90C630D10564F38DE798E20E943C
:1003D0008105809180288F9380917F288F938091D1
:1003E0007E288F9380917D288F9389EA92E69F9350
:1003F0008F930E9498050F900F900F900F900F9081
:100400000F908CCFEF92FF920F931F93CF93DF93B8
:10041000182F7B01042FC0E1D7E2812F0E944308EF
:10042000813011F42197C9F7CD2B99F0602F70E03E
:10043000C7010E94A5080E94EA08C0E1D7E20E9415
:100440007D08813011F42197D1F7CD2B21F481E083
:1004500003C081E001C080E0DF91CF911F910F9137
:10046000FF90EF900895EF92FF920F931F93CF9319
:10047000DF93182F7B01042FC0E1D7E2812F0E9468
:100480004308813011F42197C9F7CD2B99F0602FE3
:1004900070E0C7010E94A5080E94E608C0E1D7E20B
:1004A0000E947D08813011F42197D1F7CD2B21F4E2
:1004B00081E003C081E001C080E0DF91CF911F9116
:1004C0000F91FF90EF9008950F931F9308C087E856
:1004D00093E10197F1F700C00000C901B8018B0159
:1004E0009C010150110921093109672B682B692BE7
:1004F00071F71F910F910895CF93DF931F92CDB79E
:10050000DEB76983DC011696ED91FC91179741E007
:10051000BE016F5F7F4F1C968C910995811181E020
:100520000F90DF91CF910895BA01DC011496ED91FF
:10053000FC911597422F1C968C910995811181E0B1
:100540000895DC011A96ED91FC911B977F936F93B0
:100550008FEB92E69F938F9309950F900F900F90DA
:100560000F900895CF93DF93009709F45CC0FC01CE
:10057000228533852115310509F457C0EC018085AA
:100580009185892B51F487ED92E69F938F93F90122
:1005900009950F900F9083E049C00190F081E02D04
:1005A000309751F482EF92E69F938F93F90109956A
:1005B0000F900F9083E03AC08A819B81892B51F480
:1005C0008DE093E69F938F93F90109950F900F901B
:1005D00083E02CC08C819D81892B51F48AE293E6C3
:1005E0009F938F93F90109950F900F9083E01EC0A0
:1005F0008E819F81892B51F485E493E69F938F939D
:10060000F90109950F900F9083E010C00995882398
:1006100039F064E673E6CE010E94A10281E006C0D3
:1006200091E09E8703C082E001C083E0DF91CF911B
:100630000895009741F0FC012685213031F427858B
:10064000248780E0089582E0089583E0089500976C
:1006500009F1FC0126852130F9F46587613059F0F4
:1006600028F0623069F0633081F018C024E4FC01A6
:10067000278780E0089525E4FC01278780E008951E
:1006800024E4FC01278780E0089524E4FC01278707
:1006900080E0089582E0089583E0089580E0089561
:1006A000CF92DF92EF92FF920F931F93CF93DF933E
:1006B000CDB7DEB72697CDBFDEBF009709F4E6C001
:1006C000DC011E962C91213009F0E2C06A018C01F8
:1006D000E62FF0E0E35FFB49608120E040E050E07E
:1006E0000E947C02F82E882339F066E973E6C8017F
:1006F0000E94A1028F2DCDC0D8011896ED91FC91DA
:1007000019976AE070E080E090E0099526E0AE017C
:100710004F5F5F4F60E0C8010E949402F82E88236B
:1007200039F062EB73E6C8010E94A1028F2DB1C0BF
:10073000698170E0762F66278A81682B072E000C6E
:10074000880B990B0E94250AF601608371838283CE
:10075000938320E03FEF4FE757E40E94820920E0B7
:1007600030E04FE253E40E94DA0A20E030E044E354
:1007700052E40E941009D6016D937D938D939C9352
:10078000139720E030E040E151E40E94DA0A20E0D3
:1007900030E040EA50E40E94820920E030E040E08E
:1007A00052E40E941109F60164837583868397835E
:1007B0006C8170E0762F66278D81682B072E000CE8
:1007C000880B990B0E94250AD60118966D937D938C
:1007D0008D939C931B9720E03FEF4FE757E40E94D7
:1007E000820920E030E04AEF52E40E94DA0A20E079
:1007F00030E040EC50E40E941009E62EF72E082F5E
:10080000192F862F9F2DA02FB12FF601808791875A
:10081000A287B38720E030E048EC52E46E2D7F2DB4
:10082000802F912F0E94D50A181624F4E12CF12C68
:1008300008EC12E48E2D9F2DA02FB12FF60180879A
:100840009187A287B38720E030E0A9016E2D7F2D2C
:10085000802F912F0E947D09882324F4E12CF12C14
:1008600000E010E08E2D9F2DA02FB12FF601808784
:100870009187A287B38786E0FE013196D6011C9648
:1008800001900D928A95E1F780E003C082E001C0FB
:1008900083E02696CDBFDEBFDF91CF911F910F91F0
:1008A000FF90EF90DF90CF900895CF92DF92FF926C
:1008B0000F931F93CF93DF93CDB7DEB72897CDBFAC
:1008C000DEBF009709F46AC0DC011E962C9121302E
:1008D00009F066C06B018C01FE01319684E0DF01F6
:1008E0001D928A95E9F720E040E050E069E8C801F0
:1008F0000E947C02F82E882339F069EC73E6C80167
:100900000E94A1028F2D4DC0D8011896ED91FC9147
:1009100019976AE070E080E090E0099526E0AE016A
:100920004F5F5F4F60E0C8010E949402F82E882359
:1009300039F067ED73E6C8010E94A1028F2D31C026
:100940008C818B838D818C8380E090E023E010C0CC
:10095000E1E0F0E0EC0FFD1FE80FF91F3081E5E06A
:10096000F0E0EC0FFD1FE20FF11D308321500196E6
:10097000843091056CF38D819E81AF81B885809321
:10098000322890933328A0933428B0933528F60169
:1009900080839183A283B38380E003C082E001C09F
:1009A00083E02896CDBFDEBFDF91CF911F910F91DD
:1009B000FF90DF90CF900895CF93DF93009709F4D5
:1009C00054C0EC0182E4FE0111928A95E9F74AE0F5
:1009D00050E069EF73E6CE010E94D80F48E050E086
:1009E0006FEF73E6CE0183960E94D80F49E150E085
:1009F00063E074E6CE010A960E94D80F86E696E67A
:100A0000A6E6B0E48CA79DA7AEA7BFA786E696E6AC
:100A1000A6EEBFE388A799A7AAA7BBA780E090E0AE
:100A2000AAEFB3E488AB99ABAAABBBAB80E090E094
:100A3000AAEFB2E488AF99AFAAAFBBAF80E090E075
:100A4000A0E2B2EC8CAB9DABAEABBFAB80E48CAFA5
:100A500084E08DAFEE9680E090E2A6E9B4E488836E
:100A60009983AA83BB8380E001C082E0DF91CF91AC
:100A70000895CF93DF93D82FE6E3F8E280E1DF011A
:100A80001D928A95E9F787E895E08083918389E84C
:100A900095E08283938380E995E0868397838BE852
:100AA00095E08483958385E995E08087918788E93F
:100AB00095E082879387CF010E94B202C82F8111EF
:100AC00015C06D2F86E398E20E942703C82F81117D
:100AD0000DC086E398E20E941903C82F811106C059
:100AE0006AE070E080E090E00E9495058C2FDF9135
:100AF000CF910895AB01682F86E398E20E945003DE
:100B00000895BC0186E398E20E945504089580E0B0
:100B1000089580E008950E943302811181E00895D4
:100B20000E940202811181E008950E9464020895EA
:100B30000F931F93CF93DF93CDB7DEB7C150D14052
:100B4000CDBFDEBF9E01285F3E4FF901419151911B
:100B50009F018E010F5F1F4F80E091E0F801BC0103
:100B6000119261507040E1F760E071E0C8010E94AD
:100B70004410F80101900020E9F73197E01BF10BD8
:100B8000CF5FDE4FE883C150D140CF5FDE4F888119
:100B9000C150D1401F928F931F930F930E942E102C
:100BA0000F900F900F900F90CF5FDE4FCDBFDEBF45
:100BB000DF91CF911F910F91089580E0089540E05B
:100BC00068ED81E690E00E94EE0880E0089580E004
:100BD000089580E008C0E82FF0E0E05FFB4F9081CF
:100BE000986090838F5F8830B0F380E008C0E82F72
:100BF000F0E0E05DFB4F9081986090838F5F8830DC
:100C0000B0F380E008C0E82FF0E0E05BFB4F90819C
:100C1000986090838F5F8830B0F380E008C0E82F41
:100C2000F0E0E059FB4F9081986090838F5F8830AF
:100C3000B0F380E008C0E82FF0E0E057FB4F908170
:100C4000986090838F5F8830B0F380E008C0E82F11
:100C5000F0E0E055FB4F9081986090838F5F883083
:100C6000B0F3089584B38D7F84BBE1EBF4E0808121
:100C7000877F808385B38E7F85BB84B3816084BB8F
:100C80000E94F408089581B1877F81B980B188609E
:100C900080B9E3E1F4E08081877F808380818F7772
:100CA00080838081887F808381B18B7F81B980B18F
:100CB000846080B9E2E1F4E08081877F8083808175
:100CC0008F7780838081887F80830E943C0808958D
:100CD0000E94E9058DB184608DB98CB184608CB9B6
:100CE0008DB188608DB98CB188608CB90E94DF05A8
:100CF0000E9432060E94E7050E94F2080E94430605
:100D00000E94DD050895E0EAF8E08481886084832C
:100D1000858181608583E6E4F8E280818E7F80832F
:100D200013868EE00895E6E4F8E280818E7F80836A
:100D3000138680E00895E0EAF8E08481836084838C
:100D40000E9493060895E6E4F8E28081886080833B
:100D5000818190E0880F991F81608093A70884E0CB
:100D600008950E94A30608950E94A3060895E6E44C
:100D7000F8E28081886080838181880F8093A70852
:100D800083E008950E94B7060895A6E4B8E28C9126
:100D9000877F8C9382E01B968C931B975096ED91E6
:100DA000FC9151975C968D919C915D97099582304D
:100DB00019F0833021F006C00E94B40608950E9405
:100DC000C20608950E949B060895E0EAF8E0848137
:100DD0008B7F848384E00895E0EAF8E084818B7F50
:100DE000848383E00895E0EAF8E08481846084836A
:100DF0008481836084830E9493060895E0EAF8E08A
:100E000084818460848388E008958091A50884FFAC
:100E100019C0A6E4B8E25296ED91FC9153975E9604
:100E20008D919C915F970995823019F0833021F064
:100E300006C00E94B40608950E94C20608950E944A
:100E40009B060895E6E4F8E28081877F8083A28193
:100E5000B381CD010196828393838C918093A808FE
:100E600084819581019784839583892B11F083E098
:100E7000089585E00895CF93DF93E6E4F8E280815A
:100E8000877F808384819581019731F4E0EAF8E0DF
:100E900084818460848305C0E0EAF8E084818B7FEC
:100EA0008483E6E4F8E284819581019784839583C5
:100EB000892BA9F0DF01C281D381E0EAF8E08085C7
:100EC000888312968D919C911397019612968D931B
:100ED0009C93139784818260848384E026C0A6E477
:100EE000B8E21296ED91FC9113978091A808808347
:100EF00012968D919C911397019612968D939C93C7
:100F000013978C9184608C931C96ED91FC911D97A6
:100F100058968D919C91599709958250823018F47A
:100F20000E94FE0602C00E94F306DF91CF91089551
:100F30008091A50884FF19C0A6E4B8E25296ED910D
:100F4000FC9153975E968D919C915F9709958230A5
:100F500019F0833021F006C00E94B40608950E9463
:100F6000C20608950E949B060895A6E4B8E28C91FB
:100F700084608C931C96ED91FC911D9758968D91F1
:100F80009C9159970995833039F0843041F0823033
:100F900049F40E94B40608950E94C20608950E9472
:100FA000050708950E949B060895E0EAF8E0858110
:100FB00088608583A6E4B8E282E01B968C931B9739
:100FC0001E96ED91FC911F975A968D919C915B977F
:100FD0000995823019F0833021F006C00E94B406D2
:100FE00008950E94C20608950E9483060895E0EACB
:100FF000F8E0848188608483858181608583E6E46C
:10100000F8E280818E7F808382E083878EE008957E
:10101000CF93DF93E0EAF8E08581806C858380914F
:10102000462883FF07C08091A50884FF03C08FE096
:10103000809350288091A50883FF03C080E18093AE
:1010400050288091A50882FF03C081E18093502839
:10105000C6E4D8E2EA85F0E0EE0FFF1FE050F84D5D
:101060000190F081E02D09958A87DF91CF91089555
:1010700081E0089585E00895E0EAF8E08FE5868351
:1010800081E0838308959091462891FD34C0E6E481
:10109000F8E28183892F8E7F82609EE0928724EF21
:1010A00031E020873187877F8460808388E398E000
:1010B00084879587108E118E86879787128E138E60
:1010C000808B918B148E158E828B938B168E178E40
:1010D0008AE398E0848B958B10A211A2E0EAF8E0F5
:1010E0008481886084838581816085838581806C2B
:1010F000858380E0089581E008958091A50882FFAE
:1011000007C0E6E4F8E280818E7F808382E08387F7
:101110008091462880FD17C0E6E4F8E28D7F808349
:101120008FEF8183A0EAB8E015968C911597806CBB
:1011300015968C93159713968C9113978F7313961E
:101140008C938385089581E008959C0190914628B1
:1011500092FF09C0E6E4F8E2228333836483758357
:10116000892F8B7F808308959091462890FD2CC015
:10117000E6E4F8E291609083882321F081E0809397
:10118000502803C082E0809350280E94080816C0AF
:101190008FE493EC0197F1F700C000008091A5085F
:1011A000882324F08091A50886FFF8CF8FE493EC84
:1011B0000197F1F700C000000E94080880914628BE
:1011C00080FDE6CF80E0089581E0089581E00E94EF
:1011D000B408089580E00E94B4080895FC0164BF3B
:1011E0004083089580E00895E0E4F8E086EB92E023
:1011F0008087918780EC868384E298E28093C6287A
:101200009093C72880E008959091440895FFFCCF03
:101210008093420808950E94040980E090E00895B8
:101220005058BB27AA270E9428090C949B0A0E94A9
:101230008D0A38F00E94940A20F039F49F3F19F487
:1012400026F40C948A0A0EF4E095E7FB0C94840AC9
:10125000E92F0E94AC0A58F3BA1762077307840794
:10126000950720F079F4A6F50C94CE0A0EF4E095DB
:101270000B2EBA2FA02D0B01B90190010C01CA0150
:10128000A0011124FF27591B99F0593F50F4503EFB
:1012900068F11A16F040A22F232F342F4427585FED
:1012A000F3CF469537952795A795F0405395C9F705
:1012B0007EF41F16BA0B620B730B840BBAF09150BD
:1012C000A1F0FF0FBB1F661F771F881FC2F70EC05C
:1012D000BA0F621F731F841F48F48795779567952F
:1012E000B795F7959E3F08F0B0CF9395880F08F01B
:1012F0009927EE0F9795879508950E94600A08F444
:1013000081E008950E9496090C949B0A0E94940A19
:1013100058F00E948D0A40F029F45F3F29F00C94A8
:10132000840A51110C94CF0A0C948A0A0E94AC0AC8
:1013300068F39923B1F3552391F3951B550BBB2704
:10134000AA2762177307840738F09F5F5F4F220F49
:10135000331F441FAA1FA9F335D00E2E3AF0E0E840
:1013600032D091505040E695001CCAF72BD0FE2F8A
:1013700029D0660F771F881FBB1F2617370748071E
:10138000AB07B0E809F0BB0B802DBF01FF279358D6
:101390005F4F3AF09E3F510578F00C94840A0C940C
:1013A000CF0A5F3FE4F3983ED4F38695779567952F
:1013B000B795F7959F5FC9F7880F911D969587950B
:1013C00097F90895E1E0660F771F881FBB1F62172A
:1013D00073078407BA0720F0621B730B840BBA0BE8
:1013E000EE1F88F7E09508950E94B40A88F09F5791
:1013F00098F0B92F9927B751B0F0E1F0660F771F39
:10140000881F991F1AF0BA95C9F714C0B13091F02E
:101410000E94CE0AB1E008950C94CE0A672F782F6F
:101420008827B85F39F0B93FCCF3869577956795F3
:10143000B395D9F73EF490958095709561957F4F5F
:101440008F4F9F4F0895E89409C097FB3EF4909505
:101450008095709561957F4F8F4F9F4F9923A9F08D
:10146000F92F96E9BB279395F6958795779567951C
:10147000B795F111F8CFFAF4BB0F11F460FF1BC060
:101480006F5F7F4F8F4F9F4F16C0882311F096E9F3
:1014900011C0772321F09EE8872F762F05C06623A1
:1014A00071F096E8862F70E060E02AF09A95660F5A
:1014B000771F881FDAF7880F9695879597F9089513
:1014C000990F0008550FAA0BE0E8FEEF1616170655
:1014D000E807F907C0F012161306E407F50798F0BD
:1014E000621B730B840B950B39F40A2661F0232BD6
:1014F000242B252B21F408950A2609F4A140A69552
:101500008FEF811D811D089597F99F6780E870E036
:1015100060E008959FEF80EC089500240A94161669
:10152000170618060906089500240A9412161306D1
:10153000140605060895092E0394000C11F488235F
:1015400052F0BB0F40F4BF2B11F460FF04C06F5F7B
:101550007F4F8F4F9F4F089557FD9058440F551F51
:1015600059F05F3F71F04795880F97FB991F61F025
:101570009F3F79F087950895121613061406551F9C
:10158000F2CF4695F1DF08C0161617061806991F08
:10159000F1CF86957105610508940895E894BB27FD
:1015A00066277727CB0197F908950E94600A08F40F
:1015B0008FEF08950E94ED0A0C949B0A0E948D0AF9
:1015C00038F00E94940A20F0952311F00C94840ABC
:1015D0000C948A0A11240C94CF0A0E94AC0A70F36E
:1015E000959FC1F3950F50E0551F629FF001729FC8
:1015F000BB27F00DB11D639FAA27F00DB11DAA1FD7
:10160000649F6627B00DA11D661F829F2227B00D23
:10161000A11D621F739FB00DA11D621F839FA00DAE
:10162000611D221F749F3327A00D611D231F849FFE
:10163000600D211D822F762F6A2F11249F57504055
:101640009AF0F1F088234AF0EE0FFF1FBB1F661FD0
:10165000771F881F91505040A9F79E3F510580F099
:101660000C94840A0C94CF0A5F3FE4F3983ED4F3C1
:10167000869577956795B795F795E7959F5FC1F73D
:10168000FE2B880F911D9695879597F90895A0E1F7
:10169000B0E0EDE4FBE00C94C40E7C011B016A0198
:1016A000FC0116821782838181FF44C39E012F5F54
:1016B0003F4F3901F7019381F10193FD859193FF2C
:1016C00081911F01882309F431C3853239F493FDD8
:1016D000859193FF81911F01853239F4B70190E024
:1016E0000E94F20F56016501E5CF10E0512C912CBC
:1016F000FFE1F915D8F08B3279F038F4803279F0C7
:101700008332A1F4F92DF0612EC08D3261F0803367
:1017100069F4292D21602DC0392D3260932E892D39
:101720008460982E2AC0E92DE86015C097FC2DC072
:1017300020ED280F2A3088F496FE06C03AE0139F69
:10174000200D1124122F19C08AE0589E200D11245B
:10175000522EE92DE0629E2E10C08E3231F496FC9E
:10176000E5C2F92DF0649F2E08C08C3621F4292D96
:101770002068922E02C0883641F4F10193FD8591D4
:1017800093FF81911F018111B3CF9BEB980F933091
:1017900020F4992D9061805E07C09BE9980F9330EB
:1017A00008F066C1992D9F7E96FF16E09F73992ED3
:1017B000853619F49064992E08C0863621F4392FA5
:1017C0003068932E02C01111115097FE07C01C33D0
:1017D00050F444244394410E27E00BC0183038F0F5
:1017E00027E017E005C027E09CE3492E02C0212F27
:1017F000412C560184E0A80EB11CF6016081718174
:1018000082819381042DA3010E94F50E6C01F98160
:10181000FC87F0FF02C0F3FF06C091FC06C092FEF9
:1018200006C000E205C00DE203C00BE201C000E00B
:101830008C858C7019F001115AC29BC297FE10C0A2
:101840004C0CFC85F4FF04C08A81813309F44A946E
:10185000141474F528E0241578F588E0482E2CC07F
:1018600096FC2AC0812F90E08C159D059CF03CEFE2
:10187000C3163FEFD30674F0892D8068982E0AC0F6
:10188000E2E0F0E0EC0FFD1FE10FF11D80818033FD
:1018900019F411501111F4CF97FE0EC04424439453
:1018A000410E812F90E0C816D9062CF41C1904C0F3
:1018B0004424439401C010E097FE06C01C141D048C
:1018C00034F4C601019605C085E090E002C081E0D5
:1018D00090E001110196112331F0212F30E02F5FAC
:1018E0003F4F820F931F252D30E08217930714F48A
:1018F000581A01C0512C892D897049F4552039F0AE
:10190000B70180E290E00E94F20F5A94F7CF0023D3
:1019100029F0B701802F90E00E94F20F93FC09C0DC
:10192000552039F0B70180E390E00E94F20F5A94FD
:10193000F7CF97FE4CC04601D7FE02C0812C912CF8
:10194000C60188199909F301E80FF91FED87FE8791
:101950009601241931092F87388B012F10E011953A
:10196000019511093FEF8316930629F4B7018EE222
:1019700090E00E94F20FC814D9044CF08F8598892A
:101980008815990524F4ED85FE85818101C080E3E9
:10199000F1E08F1A91082D853E852F5F3F4F2D87EF
:1019A0003E87801691062CF0B70190E00E94F20F5E
:1019B000D9CFC814D90441F49A81963320F49533D1
:1019C00019F43C8534FF81E3B70190E04EC08A8171
:1019D000813319F09C859F7E9C87B70190E00E941F
:1019E000F20F111105C094FC18C085E690E017C0F5
:1019F000B7018EE290E00E94F20F1E5F82E001E0EC
:101A0000080FF301E80FF11D8081B70190E00E94FB
:101A1000F20F802F0113F3CFE6CF85E490E0B701FA
:101A20000E94F20FD7FC06C0C114D10441F4EC852A
:101A3000E4FF05C0D194C194D1088DE201C08BE2CE
:101A4000B70190E00E94F20F80E32AE0C216D104B1
:101A50002CF08F5FFAE0CF1AD108F7CFB70190E0F2
:101A60000E94F20FB701C601C0960E94F20F54C146
:101A7000833631F0833779F0833509F056C020C0C2
:101A8000560132E0A30EB11CF6018081898301E08A
:101A900010E0630112C05601F2E0AF0EB11CF60176
:101AA000C080D18096FE03C0612F70E002C06FEF4E
:101AB0007FEFC6010E94E70F8C01F92DFF7714C05C
:101AC000560122E0A20EB11CF601C080D18096FE24
:101AD00003C0612F70E002C06FEF7FEFC6010E946C
:101AE000CD0F8C01F92DF0689F2EF3FD1AC0852DC6
:101AF00090E008171907A8F4B70180E290E00E946F
:101B0000F20F5A94F4CFF60197FC859197FE8191DC
:101B10006F01B70190E00E94F20F51105A940150EA
:101B200011090115110579F7F7C0843611F08936CE
:101B300061F5560197FE09C024E0A20EB11CF60122
:101B400060817181828193810AC0F2E0AF0EB11C85
:101B5000F60160817181072E000C880B990BF92D1D
:101B6000FF769F2E97FF09C090958095709561959F
:101B70007F4F8F4F9F4FF0689F2E2AE030E0A301E8
:101B80000E947010C82EC6183FC0092D853721F459
:101B90000F7E2AE030E01DC0097F8F3691F018F4E7
:101BA000883559F0C3C0803719F0883711F0BEC0AE
:101BB000006104FF09C0046007C094FE08C006600D
:101BC00006C028E030E005C020E130E002C020E19E
:101BD00032E0560107FF09C084E0A80EB11CF601EF
:101BE000608171818281938108C0F2E0AF0EB11CE7
:101BF000F6016081718180E090E0A3010E94701085
:101C0000C82EC6180F77902E96FE0BC0092D0E7F9A
:101C1000C11650F494FE0AC092FC08C0092D0E7E35
:101C200005C0DC2C092D03C0DC2C01C0D12E04FF23
:101C30000DC0FE01EC0DF11D8081803311F4097E91
:101C400009C002FF06C0D394D39404C0802F8678C5
:101C500009F0D39403FD11C000FF06C01C2DD5145C
:101C600080F4150D1D190DC0D51458F4B70180E28C
:101C700090E00E94F20FD394F7CFD51410F45D18C2
:101C800001C0512C04FF10C0B70180E390E00E9416
:101C9000F20F02FF17C001FD03C088E790E002C009
:101CA00088E590E0B7010CC0802F867859F001FFDD
:101CB00002C08BE201C080E207FD8DE2B70190E037
:101CC0000E94F20FC11638F4B70180E390E00E9441
:101CD000F20F1150F7CFCA94F301EC0DF11D808182
:101CE000B70190E00E94F20FC110F5CF15C0F4E0EB
:101CF000F51560F584E0581A93FE1FC0011127C046
:101D00002C8523FF2AC000E910E0392D3071932E75
:101D1000F8018491811124C0552009F4E4CCB70165
:101D200080E290E00E94F20F5A94F6CFF70186818C
:101D3000978126C08FEF9FEF23C0B70180E290E02C
:101D40000E94F20F5A945110F8CFD8CF512CB701FE
:101D5000802F90E00E94F20FD3CF04E910E0D5CF9E
:101D600091108052B70190E00E94F20F0F5F1F4F59
:101D7000CFCF23E0251510F483E0BDCF512CC0CF89
:101D80006096E2E10C94DD0E2F923F924F925F92AB
:101D90006F927F928F929F92AF92BF92CF92DF927B
:101DA000EF92FF920F931F93CF93DF93CDB7DEB7E0
:101DB000CA1BDB0BCDBFDEBF09942A88398848884F
:101DC0005F846E847D848C849B84AA84B984C88457
:101DD000DF80EE80FD800C811B81AA81B981CE0F4E
:101DE000D11DCDBFDEBFED010895283008F027E0FA
:101DF0003327DA01990F311D87FD91600096610547
:101E0000710539F432602E5F3D9330E32A95E1F796
:101E100008959F3F30F080387105610509F03C5FFF
:101E20003C5F3D93913008F08068911DDF93CF9324
:101E30001F930F93FF92EF92192F987F9695E92F9A
:101E400096959695E90FFF27EE50FF4F9927332778
:101E5000EE24FF24A701E70105900894079428F4D5
:101E6000360FE71EF81E491F511D660F771F881F8A
:101E7000991F0694A1F70590079428F4E70EF81E21
:101E8000491F561FC11D770F881F991F661F069493
:101E9000A1F70590079428F4F80E491F561FC71F95
:101EA000D11D880F991F661F771F0694A1F7059013
:101EB000079420F4490F561FC71FD81F990F661F9C
:101EC000771F881F0694A9F784911095177041F029
:101ED000D695C79557954795F794E7941A95C1F706
:101EE000E8E9F0E068941590159135916591959128
:101EF00005907FE27395E118F10A430B560BC90B6D
:101F0000D009C0F7E10CF11E431F561FC91FD01D99
:101F10007EF4703311F48A95E6CFE894015030F0E6
:101F2000080F0AF40027021708F4202F2395022F28
:101F30007A3328F079E37D932A95E9F710C07D93F1
:101F40002A9589F60694979567953795179517946E
:101F5000E118F10A430B560BC90BD00998F02395F1
:101F60007E9173957A3308F070E37C932013B8F771
:101F70007E9170617D9330F0839571E37D9370E382
:101F80002A95E1F71124EF90FF900F911F91CF91C7
:101F9000DF91992787FD90950895FC010590615088
:101FA00070400110D8F7809590958E0F9F1F08956F
:101FB000FB01DC014150504048F001900D9200209F
:101FC000C9F701C01D9241505040E0F70895FC014F
:101FD0006150704001900110D8F7809590958E0F58
:101FE0009F1F08950F931F93CF93DF93FB012381CE
:101FF00021FD03C08FEF9FEF2CC022FF16C046814A
:102000005781248135814217530744F4A081B1815F
:102010009D012F5F3F4F208331838C932681378131
:102020002F5F3F4F2683378314C08B01EC01FB01E8
:102030000084F185E02D0995892BE1F6D8011696EB
:102040008D919C911797019616968D939C93179757
:10205000CE01DF91CF911F910F910895A0E0B0E0E4
:10206000E4E3F0E10C94D40EAE014B5F5F4FFA0154
:1020700061917191AF018091C6289091C7280E940B
:10208000470BE2E00C94ED0EAEE0B0E0EAE4F0E1E4
:102090000C94D20E8C01FA0186E08C8309831A839A
:1020A00077FF02C060E070E8CB0101978D839E83CB
:1020B000A901BF01CE0101960E94470B4D815E81AF
:1020C00057FD0AC02F813885421753070CF49A0137
:1020D000F801E20FF31F10822E96E4E00C94EB0E51
:1020E000FA01AA27283051F1203181F1E8946F9349
:1020F0006E7F6E5F7F4F8F4F9F4FAF4FB1E03ED0EF
:10210000B4E03CD0670F781F891F9A1FA11D680F8C
:10211000791F8A1F911DA11D6A0F711D811D911DBF
:10212000A11D20D009F468943F912AE0269F112434
:102130003019305D3193DEF6CF010895462F477098
:10214000405D4193B3E00FD0C9F7F6CF462F4F70F3
:10215000405D4A3318F0495D31FD4052419302D051
:10216000A9F7EACFB4E0A6959795879577956795F7
:10217000BA95C9F700976105710508959B01AC01F7
:102180000A2E06945795479537952795BA95C9F71E
:10219000620F731F841F951FA01D0895F894FFCF31
:1021A00043686970204E616D653A200925730D0AF8
:1021B000004D616E7566616374757265723A2009CF
:1021C00025730D0A00496E7465726661636520505F
:1021D000726F746F636F6C3A200925730D0A005398
:1021E0007570706C7920566F6C74204D61783A2050
:1021F00009252E316620560D0A00537570706C79D2
:1022000020566F6C74204D696E3A2009252E316678
:1022100020560D0A004D6178696D756D2043757209
:1022200072656E743A2009252E31662075410D0ABB
:10223000004D61782054656D7065726174757265CA
:102240003A2009252E316620430D0A00446976653F
:10225000722056657273696F6E3A20090956252EF1
:1022600031662E252E32640D0A000A54656D7020E9
:10227000433A20252E32660A0054656D7020463A96
:1022800020252E32660A0048756D69646974793AB2
:1022900020252E32660A0072617720646174613AEB
:1022A000203078252E32780A000A73657269616CD5
:1022B000206E756D626572203A20256C750A007378
:1022C00068743430783A206661696C656420746F94
:1022D0002025732E0D0A007368743430783A206418
:1022E000656C61795F6D73206973206E756C6C0D20
:1022F0000A007368743430783A206932635F696E1B
:102300006974206973206E756C6C0D0A00736874B3
:102310003430783A206932635F6465696E6974208D
:102320006973206E756C6C0D0A00736874343078B4
:102330003A206932635F72656164206973206E754B
:102340006C6C0D0A007368743430783A206932631B
:102350005F7772697465206973206E756C6C0D0A05
:102360000064652D696E697469616C697A652069BC
:10237000326300676574206932632061646472654A
:1023800073730067657420646576696365207661A0
:102390007269616E740077726974652074656D701E
:1023A00020616E642068756D696469747920636D5D
:1023B0006400726561642074656D7020616E6420D4
:1023C00068756D6964697479007772697465205500
:1023D000494420636D640067657420554944007763
:1023E000726974652068656174657220636D64004C
:1023F000746F2072657365740053485434780049D3
:1024000032430053656E736972696F6E00FDF6E0CA
:102410009306A306B70605073B079807B406C2064E
:10242000B1069B06E506EC06F306FE068306C50626
:10243000D507F70700000002000000000B090000AC
:0224400000009A
:00000001FF
