S01C00007368743430785F54656D705F68756D69646974792E737265631C
S113000098210020250100002101000021010000A9
S113001000000000000000000000000000000000DC
S113002000000000000000000000000021010000AA
S11300300000000000000000210100002101000078
S11300402101000021010000210100002101000024
S11300502101000021010000210100002101000014
S11300602101000021010000210100002101000004
S1130070210100002101000095120000210100006F
S113008021010000210100002101000021010000E4
S11300902101000000000000000000002101000018
S11300A021010000210100002101000021010000C4
S11300B00000000010B5064C2378002B07D1054B37
S11300C0002B02D0044800E000BF0123237010BDC0
S11300D064000020000000000C4C0000084B10B528
S11300E0002B03D00749084800E000BF0748036815
S11300F0002B00D110BD064B002BFBD09847F9E72D
S113010000000000680000200C4C00000C4C0000B3
S11301100000000010B5014B984710BD3D030000DE
S1130120FEE70000F8B5234A234B9A4209D0224B3C
S1130130204A03E011681960043304321F498B42DA
S1130140F8D31F4B02E000221A6004331D4A934285
S1130150F9D31D4AFF211D4B8B439360FD39902336
S11301605B001B4AD1501B4AD3780325AB430224BE
S11301702343D370D3780C27BB4308263343D3706F
S1130180154B987B30229043202210439873997B1F
S1130190B943314399739A7BAA4322439A730F4A12
S11301A0516880230B4353600D4B98470D4B984780
S11301B0FEE7C0460C4C0000000000206400002054
S11301C0640000209801002000ED00E00000000021
S11301D000700041005000410048004100400041CF
S11301E04D3D00005D13000070B5134B5020195CA9
S11301F0042291431954195C0125A9430124214384
S1130200C9B219541838195C0F26B1430226314378
S1130210C9B2195451215E5C96435E545A5CAA4398
S11302202243D2B25A541A5C42390A4020210A436A
S1130230D2B21A5470BDC04600440041054A136A44
S113024008210B431362044B044A5A80044A5A801F
S11302507047C04600040040000C004015400000F8
S11302601343000010B5044B984704490448054B58
S11302709847054B984710BD3D020000000C004212
S11302801401002079040000E9010000044A136A03
S113029080210B431362034A034B5A807047C046C4
S11302A00004004019400000000C004030B50F4B22
S11302B0C222995C0125A94301242143C9B299545E
S11302C0B120195CB33A914303221143C9B21954C2
S11302D0C3215A5CAA432243D2B25A541A5CB43999
S11302E00A4030210A43D2B21A5430BD00440041BE
S11302F010B582B0064B9847002300931033054A8B
S113030005490648064CA047064B984702B010BD65
S11303108D02000080000020001C0042C400002068
S1130320BD060000AD02000010B50248024B98471C
S113033010BDC04610E000E0DD03000070B5184BAE
S11303409847C022D20580235B0353619360154B09
S11303508020C00598621449996254255C5D01218E
S11303608C435C558024A4035461946098620F4CC0
S11303709C6201355C5D8C435C558024A4049461CB
S1130380946098620A4A9A6259201A5C8A431A5401
S1130390084B9847084B9847084B984770BDC04690
S11303A0ED08000000440041100000C0200000C01F
S11303B0000200C065020000F102000029030000F1
S11303C0EFF31083036072B6BFF35F8F7047BFF320
S11303D05F8F036883F310887047000010B5024BE9
S11303E01860024B984710BD9000002011130000C4
S11303F010B5044B1C68044B984701002000034BC4
S1130400984710BD90000020DD0800001D13000077
S113041010B584B01438848B01AB1C801400029294
S1130420064A5A8003911900054B9847002802D1C7
S1130430200004B010BD0400FAE7C0460080FFFFAE
S11304401910000010B584B01438848B01AB1C80E3
S113045014000292064A5A8003911900054B9847EA
S1130460002802D1200004B010BD0400FAE7C04601
S11304700180FFFF1910000070B504000D00431E39
S11304809841C0B25E220749074B984729002000D3
S1130490064B9847002803D1054BA361054B6361C4
S11304A070BDC04648460000B5070000690F000053
S11304B0450400001104000010B5014B984710BD1D
S11304C0990F00008905890D8023DB001A400A4337
S11304D082831000704714300860002070470000C9
S11304E070B504000D00160000280ED000290AD0B3
S11304F0012034220649074B98472368320029001B
S11305002000984770BD0020F3E70020F1E7C046C3
S113051064460000B507000070B504000D00160025
S113052000280ED000290AD001203D220649074B9D
S113053098476368320029002000984770BD002066
S1130540F3E70020F1E7C04664460000B507000069
S113055010B5083800230363436A002B00D0984782
S113056010BD10B5083800230363C36A002B00D004
S1130570984710BD10B504002C30044B9847236AEB
S1130580083C002B01D02000984710BD55080000FE
S113059070B504000E00150000281DD000291DD0E0
S11305A0002A1DD100203C22FF321049104B9847ED
S11305B04423E25A0833E35A9A4213D1A6644C23E3
S11305C0E5520022083BE252433B236320000830FB
S11305D0084B9847280070BD0020E4E70020E2E7BC
S11305E00120E0E71C204042F5E7C04678460000C1
S11305F0B5070000570F000070B504000200083A68
S11306004423D35A4C21525A93420DD00200016C18
S1130610083A5D1C44201552C95C2000044B9847DD
S11306202000044B984770BD034B9847FBE7C04636
S11306304F0F0000570F00005F0F0000F0B585B0AA
S113064004000D001600002817D0002917D0002A36
S113065017D10020AC2252001249134B984703A82B
S1130660124B9847343420000194114B98470700EB
S113067003A8104B984700240BE00020EAE7002071
S1130680E8E70120E6E70134A4B2691801980A4BAF
S113069098472100A74201D9B442F4D3200005B001
S11306A0F0BDC04678460000B5070000C103000055
S11306B095080000CF03000009080000F8B5040005
S11306C00D0016001F00002826D0002926D0002A7D
S11306D026D0002B26D100203A221549154B9847E5
S11306E0200034303A003100134B984700281BD1C6
S11306F0200008302900114B984700280BD1104BDB
S11307006360104B2360104BA360104BE360104BED
S11307102361104B6361F8BD0020DDE70020DBE7B7
S11307200020D9E70120D7E70D204042F3E7C04677
S113073078460000B5070000BD070000B10E0000B8
S11307403D06000091050000F90500007505000054
S1130750510500006305000010B50400431E9841D4
S1130760C0B261220449054B984720000830044B6D
S11307709847002010BDC04678460000B507000029
S11307803D0F000070B504000D0000280BD00029B7
S113079007D0012077220549054B98472C6000209B
S11307A070BD0020F6E70020F4E7C046784600005C
S11307B0B5070000002800D100BE704770B50400E2
S11307C00E001500002812D0002912D0002A12D1E0
S11307D0002028220A490B4B98476B1E2B420CD150
S11307E063600023A360E3602660002070BD0020E6
S11307F0EFE70020EDE70120EBE70D204042F5E7AD
S113080098460000B507000070B504000D000028EC
S113081016D0002912D0012040220C490C4B9847D5
S1130820A368E2689A420DD0626813402268D35CE0
S11308302B70A3680133A360002070BD0020EBE798
S11308400020E9E70A204042F7E7C0469846000046
S1130850B507000070B504000D00431E9841C0B2F6
S113086051220A490A4B98476368E2681340226898
S1130870D554E368A2689A1A61688A4201D9591A60
S1130880A1600133E360002070BDC04698460000BB
S1130890B507000010B50400431E9841C0B267229A
S11308A00349044B9847E068A368C01A10BDC046CA
S11308B098460000B50700000300064A1268002AA3
S11308C004D0044A1068C318136070470249014AEF
S11308D01160F6E79400002098210020C8239B00B3
S11308E0584383001B1858007047000010B5064B8E
S11308F05A685A60054B9847054B9847054B9847EB
S1130900FF20054B984710BD004000413D09000001
S1130910A9120000ED1200001D090000C3070AD54A
S1130920054B802252009A60832252025A60024B85
S11309305B78DB09FBD17047000C0040064B1A7A48
S1130940D2B21A725A7AD2B25A729A7AD2B29A72CB
S1130950DA7AD2B2DA72704700040040024B9C4645
S11309606044800AC0B2704700F8FFBD10B58469C6
S1130970237EDB0702D5A37DDB070FD4237E9B07F1
S113098002D5A37D9B070ED4237E5B0715D5628B0E
S113099037231A420CD00833638310BD0123237517
S11309A003689847F9E70223237583689847F4E7B7
S11309B04368218DC9B29847EFE7237EDB09ECD069
S11309C080232376C3689847638B9BB26383E4E7F1
S11309D0034B984200D07047024B1960FBE7C046B6
S11309E0001C00429800002010B5024B98470930C3
S11309F0C0B210BD5D09000010B50B4B9847020052
S1130A000020002806D0094A09490020094B9847CC
S1130A10002010BD83001B189900074BCB5C9A4241
S1130A20F7D00130C0B2ECE75D0900005E020000BF
S1130A300C470000B5070000BC46000070B5040078
S1130A40384B9847E369DB071DD483001B189A00D1
S1130A50354B9B185A681C231A40E3699B07FCD149
S1130A6023689B0709D5236802218B432360E3692C
S1130A709B07FCD1E3699B07FCD401231343236048
S1130A80E3699B07FCD1E369DB07FCD483001B18F3
S1130A909A00254B9B185B682360E3699B07FCD194
S1130AA083001B189A00204B9B189B686360E369C2
S1130AB05B07FCD183001B189A001B4B9B185B68D7
S1130AC09A040BD4C022D201134207D183001B180D
S1130AD09A00154B9B189B89A38115E083001B1872
S1130AE09A00114989188A89A389D204D20C5B0B14
S1130AF05B031343A3818B7B07221A40A389520310
S1130B00DB04DB0C1343A381074A83001D18A900EF
S1130B100D005118C97BA1735219127C3023E25481
S1130B20002070BDF9090000BC46000010B50D4B53
S1130B3098470023002B08D0F02292000A49002095
S1130B400A4B98470120404210BD5A00D218D100E8
S1130B50074A5218127D904202D00133DBB2E9E712
S1130B6058B2F1E75D0900000C470000B50700002A
S1130B70BC46000070B505000C0008002D4B9847DA
S1130B80C0B2E369DB071DD443001B18DA002A4B0B
S1130B909B189A691C231A40E3699B07FCD12368BC
S1130BA09B0709D5236802218B432360E3699B07D4
S1130BB0FCD1E3699B07FCD4012313432360E3695D
S1130BC09B07FCD1E369DB07FCD443001B18DA0064
S1130BD0194B9B189B692360E3699B07FCD1430075
S1130BE01B18DA00144B9B18DB696360E3695B072D
S1130BF0FCD442001218D1000F4B5B181A6AE26051
S1130C00DA7E03231A40AA81023B93429B415B4252
S1130C10626A0A490A409B0313436362E3695B0700
S1130C20FCD443001818C200034B9B18DB8CEB81E7
S1130C30002070BD2D0B0000BC460000FFBFFFFF6D
S1130C4070B5050004692368DB0E01261E40431EAF
S1130C509841C0B28E4A8F498F4B98476B68012BDD
S1130C604DD063688D4A13406360E3695B07FCD42D
S1130C702B885A054ED56A88D20704D56A88802104
S1130C80C9000A436A805B00854A1A40E3695B072E
S1130C90FCD4636A8021C9010B40134380221202F1
S1130CA013436362E3695B07FCD42E697D4A337E98
S1130CB0DBB21800511E002A02D00A009B07F6D0AE
S1130CC02368DB0E01221A40E3695B07FCD4638BC3
S1130CD09BB2C10700D48FE09A072FD50122227658
S1130CE06A88802149010A436A806A886E490A40F9
S1130CF06A80DB0700D4C6E005204042A2E0002E53
S1130D00AFD062688023DB0213436360E3695B074F
S1130D10FCD4ADE75B00FF2213406A8801210A403E
S1130D201A43E3695B07FCD4636A8021C9010B4061
S1130D3013436362E3695B07FCD4B6E75B071BD428
S1130D406B885B0534D52A881212520006231A4098
S1130D50E3695B07FCD4636A8021C9010B40134338
S1130D60F12213436362E3695B07FCD46B884F4A47
S1130D7013406B80002065E06B68002B04DD6B88FA
S1130D808022520113436B806B881BB2002B06DB5D
S1130D906B88454A13406B800220404252E06268EF
S1130DA0C0239B0213436360E3695B07FCD4EFE752
S1130DB06868002811D16B881BB2002B04DB6B8898
S1130DC0394A13406B803DE06268C0239B021343A1
S1130DD06360E3695B07FCD4F1E7AB681A78282306
S1130DE0E254E3695B07FCD4AB680133AB606B6826
S1130DF0013B6B60002025E0810747D56968002925
S1130E003CD05B073AD401396960002901D1002A3A
S1130E101BD0012917D06B68002B07D16B881BB23C
S1130E20002B1BDB6B88204A13406B80AA68531C81
S1130E30AB60E3695B07FCD42823E35C13700223F3
S1130E402376002070BD002AE5D062688023DB028F
S1130E5013436360E3695B07FCD4DCE76368124A0D
S1130E6013406360E3695B07FCD46268C0239B02A0
S1130E7013436360E3695B07FCD4D3E7022323765F
S1130E8002204042DEE704204042DBE70020D9E7AD
S1130E90BC0500000C470000B5070000FFFFFBFF86
S1130EA0FE070000FFFF0000FFFEFFFFFFFBFFFF48
S1130EB070B506000C00431E9841C0B2C422194903
S1130EC0194B98472000194B9847051E01D028005C
S1130ED070BDB46131002000154B98472000154BBC
S1130EE0984743B2002B0ADB1F21014001228A40AC
S1130EF08021114C6250BFF34F8FBFF36F8F002BD3
S1130F0007DB1F21014001228A40C02149000A4C0D
S1130F106250002BDBDB1F2318401E3B8340064A34
S1130F201360D4E70C470000B50700003D0A000039
S1130F30D1090000E909000000E100E082691368BA
S1130F4002210B431360D3699B07FCD1704783696B
S1130F5089B219857047836901229A75704783693C
S1130F6002229A757047000070B504000D00431EFC
S1130F709841C0B2044A0549054B984725612900A8
S1130F802000044B984770BD2F0500000C4700005B
S1130F90B5070000750B000070B50400194D431E21
S1130FA09841C0B2184A2900184EB047246920005D
S1130FB0431E9841C0B2164A2900B0472368022252
S1130FC013432360E3699B07FCD104201149E369BF
S1130FD05B07FCD4628B120903231340012B0BD053
S1130FE001390029F3DC0138002807D0102363837A
S1130FF0E3695B07FCD4E9E7002070BD06204042AA
S1131000FBE7C0460C4700004C050000B507000094
S11310101C060000FFFF0000F8B505000E0004697F
S1131020431E9841C0B2934A9349944FB8472869E4
S1131030431E9841C0B2BD22D2008F49B847300048
S1131040431E9841C0B28E4A8B49B8476B88DB0572
S113105000D50BE1728880235B009C461A437280A2
S11310602A00310089C989C26268634613436360F8
S1131070E3695B07FCD42800824B9847002800D121
S11310809DE06B88804A13406B80F8BD0520404288
S1131090A6E073881BB2002B04DB6B887A4A1340EA
S11310A06B80F2E76268C0239B0213436360E369C9
S11310B05B07FCD4F1E753071BD46B885B0534D57D
S11310C02A881212520006231A40E3695B07FCD4F3
S11310D0636A8021C9010B401343F1221343636205
S11310E0E3695B07FCD46B88684A13406B8000207B
S11310F065E06B68002B04DD6B888022520113438A
S11311006B806B881BB2002B06DB6B885E4A134036
S11311106B800220404252E06268C0239B0213436A
S11311206360E3695B07FCD4EFE76868002811D1CA
S11311306B881BB2002B04DB6B88534A13406B8013
S11311403DE06268C0239B0213436360E3695B076D
S1131150FCD4F1E7AB681A782823E254E3695B070F
S1131160FCD4AB680133AB606B68013B6B6000205F
S113117025E0BB0778D56B68002B6DD052076BD484
S1131180013B6B60002B01D100294CD0012B48D0CE
S11311906B68002B07D16B881BB2002B4CDB6B8870
S11311A0394A13406B80AA68531CAB60E3695B0740
S11311B0FCD42823E35C13700223237600206B887D
S11311C0DB0500D461E72869314A037EDBB21F00E6
S11311D0511E002A00D159E70A009B07F5D00020D0
S11311E0002800D055E72368DB0E01211940E3698C
S11311F05B07FCD4628B92B2FB07BAD5930700D489
S113120059E7012323766B88802149010B436B80C6
S11312106B881D490B406B80D30722D505204042C3
S1131220CDE70029B4D062688023DB0213436360F6
S1131230E3695B07FCD4ABE76368134A134063605C
S1131240E3695B07FCD46268C0239B0213436360B9
S1131250E3695B07FCD4A2E7022323760220404221
S1131260ADE704204042AAE70020A8E70620404258
S11312700BE7C046E70500000C470000B507000077
S1131280E9050000410C0000FFFEFFFFFFFBFFFF2C
S1131290FFFF000010B5024B1868024B984710BDC1
S11312A0980000206D0900000E4A116A090C136AA7
S11312B09B0F9B0709040C4801400B4302210B437D
S11312C0136293690B439361137F1D310B401377B2
S11312D0044BDB681B07FBD5024A136A80210B43CE
S11312E013627047000800400000FF0F024A936930
S11312F002218B439361704700080040024B034A6C
S11313005A6005221A60704710E000E0FFFFFF00FA
S113131010B5014B984710BDFD120000080E0BE0FC
S11313200B4B0C4858609860094B1B68DB03FBD5DA
S1131330094B9C4661441000421ED2B20028EFD1F2
S1131340034B59609960024B1B68DB03FBD5704764
S113135010E000E0FFFFFF00010000FFF0B585B0E2
S11313603B4B984700203B4B98473B4C20003B4B62
S1131370984721003A483B4DA84721000A313A4892
S1131380A847210023313948A847394EE06AB047BD
S113139002000B003748A847A06AB04702000B00C0
S11313A03548A847206BB04702000B003348A847D4
S11313B0A06BB04702000B003148A847E46B314FE3
S11313C03149201CB84703903049201CB847304F9E
S11313D0B847C3B2642058432E4B9847011C201CC5
S11313E02D4B9847B847C4B20398B04702000B008E
S11313F000942A48A84780225203C023DB05DA61FF
S1131400FA20C000264B9847264D29000020264B81
S11314109847264E3060264F2868B8470100254873
S1131420104CA0476868B84701002348A047A86843
S11314300F4B984702000B002048A047204D28007E
S1131440204B9847306029681F48A047D3E7C0461F
S113145015010000E1180000540100206918000083
S1131460284700004D1A00003C4700005047000088
S1131470593B00006C47000088470000A447000067
S1131480C04700008D1F000000007A440000C842DD
S1131490391C000025290000AD250000DC470000B0
S11314A0411A000038010020BD1900004C01002041
S11314B0E5280000FC4700000C4800001C48000020
S11314C048010020ED1900002C48000070B582B0DE
S11314D006000C00074D01A92800074B9847280077
S11314E0064B9847A2B231000198054B984702B0C9
S11314F070BDC046C40000208507000059070000E5
S1131500E1040000F0B585B0009016001F006B46A2
S1131510DD1DD9710F4C03A920000F4B9847200003
S11315200E4B98476B460021595E80221201200021
S11315300B4B98470122290003980A4B98470F2028
S1131540094B98473A0031000398084B984700200C
S113155005B0F0BD14010020D7040000B904000058
S1131560C5040000E1040000411A00001905000050
S11315700020704710B584689BB2C9B2007EA047B2
S1131580002800D110BD0120FCE7000010B543691C
S11315900148984710BDC0465048000010B5041ECD
S11315A031D04369002B30D00269002A11D002687F
S11315B0002A12D04168002913D08168002914D070
S11315C0C168002915D09047002816D10123A376BD
S11315D01AE00F489847032016E00E489847032066
S11315E012E00D48984703200EE00C48984703206A
S11315F00AE00B489847032006E00A4920000A4BFA
S11316009847012000E0022010BD0320FCE7C046FB
S11316106848000084480000A0480000C04800005A
S1131620DC480000F84800008D150000002808D0B0
S1131630837E012B01D003207047C37E03760020F4
S1131640FAE70220F8E700281FD0837E012B01D09F
S113165003207047417601290BD0002905D00229C7
S11316600BD003290DD00020F3E74423C3760020D8
S1131670EFE74523C3760020EBE74423C37600203D
S1131680E7E74423C3760020E3E70220E1E7000014
S1131690F0B5DE4657464E464546E0B585B00600F1
S11316A01500002800D171E0837E012B08D00324AB
S11316B0200005B03CBC90469946A246AB46F0BD1E
S11316C0334B595C062302AA324CA047041E56D160
S11316D002AB187800025B7818432F4B9B4698475F
S11316E02E4B9A4698472E4B994600222D4BC847BD
S11316F02D4B984600222D4BC0472D4F00222D4BD9
S1131700B8472D4EB04728602C492D4B98472D499A
S11317102D4B98478421C9052C4B9847686002AB30
S1131720DB780093180202AA127901921043D84779
S1131730D04700221B4BC8470022254BC04700223C
S1131740244BB847B047061C28000C30022202A9DB
S1131750214B98476B461B78AB736B461B79EB7335
S11317601E49301C1E4B9847002800D01B4E0021F8
S1131770301C1C4B9847002806D1AE6098E71A49E4
S113178030001A4B984793E70026F6E702248FE7C8
S1131790444800007515000025290000593B00004D
S11317A0C5290000E0FFEF402D30000000E0654057
S11317B02D35000000804640FD3B00000000104134
S11317C06D2300000000A0408D1F0000691C000074
S11317D000405F4000001840953D00000000C842F2
S11317E0111C0000E91B0000404900008D15000099
S11317F070B582B004000E0000282AD0837E012B2D
S113180003D00325280002B070BD002301930633E2
S113181001AA8921104DA847051E07D101ABDA782A
S11318209A701A79DA70002203230BE00B49200026
S11318300B4B9847E6E701A9895C6846C154013B14
S1131840DBB20132032AF6DD009B064A13603360E3
S1131850D8E70225D6E7C0467515000058490000B0
S11318608D1500009C00002070B5041E20D040227D
S11318700021104B98470A220F4920000F4DA8471A
S11318802000233008220E49A84720000A301922DC
S11318900C49A8470C4BE3620C4BA3620C4B23632B
S11318A00C4BA3630C4B63630C4BE363002070BDD0
S11318B00220FCE7A73D000088490000C53D000068
S11318C09049000094490000666666406666E63FFB
S11318D0CDCCCC3D0000FA42000020C200007A4486
S11318E030B583B00500264C1C2200212000254B76
S11318F09847254B2360254B6360254BE360254BBC
S1131900A360254B2361254B63612000244B98473A
S11319106B46D87107331B78002B17D12900184860
S1131920204B98476B46D87107331B78002B16D190
S113193013481D4B98476B46D87107331B78002B0F
S113194015D10A20144B9847002006E017490C488B
S1131950174B98476B46D879C0B203B030BD1549D0
S11319600748134B98476B46D879C0B2F5E712493C
S113197003480F4B98476B46D879C0B2EDE7C04691
S1131980A0000020A73D0000191A00001D1A000045
S1131990311A0000211A0000411A00004D1A0000FB
S11319A09D150000471600002D160000A0490000F8
S11319B08D150000AC490000C049000010B50A00B4
S11319C001000648064B9847002800D110BD054980
S11319D00248054B98470120F8E7C046A0000020C4
S11319E091160000D84900008D15000010B50100C3
S11319F00548064B9847002800D110BD0449024809
S1131A00044B98470120F8E7A0000020F1170000DC
S1131A10E44900008D150000002070470020704745
S1131A2010B5024CA047002010BDC04605150000AB
S1131A3010B5024CA047002010BDC046711500002F
S1131A4010B5014B984710BDF10300000FB430B539
S1131A509DB020AC20CC6422002103A80E4B9847F3
S1131A60019423002A00642103A80C4CA04703A876
S1131A700B4B9847C0B20B236B4418701978C9B24A
S1131A8003A8084B98470A20074B98471DB030BC61
S1131A9008BC04B01847C046A73D0000453E0000FE
S1131AA0B73D0000CD140000411A00000022430895
S1131AB08B4274D303098B425FD3030A8B4244D312
S1131AC0030B8B4228D3030C8B420DD3FF22090254
S1131AD012BA030C8B4202D31212090265D0030B13
S1131AE08B4219D300E0090AC30B8B4201D3CB0309
S1131AF0C01A5241830B8B4201D38B03C01A52414B
S1131B00430B8B4201D34B03C01A5241030B8B424C
S1131B1001D30B03C01A5241C30A8B4201D3CB0237
S1131B20C01A5241830A8B4201D38B02C01A52411C
S1131B30430A8B4201D34B02C01A5241030A8B421F
S1131B4001D30B02C01A5241CDD2C3098B4201D337
S1131B50CB01C01A524183098B4201D38B01C01AB5
S1131B60524143098B4201D34B01C01A524103092C
S1131B708B4201D30B01C01A5241C3088B4201D3DB
S1131B80CB00C01A524183088B4201D38B00C01A88
S1131B90524143088B4201D34B00C01A5241411AAF
S1131BA000D20146524110467047FFE701B50020BC
S1131BB000F006F802BDC0460029F7D076E770476A
S1131BC07047C0468446081C6146FFE71FB500F015
S1131BD08BFB002801D40021C8421FBD10B500F0C2
S1131BE01DFB4042013010BD10B500F07DFB002804
S1131BF001DB002010BD012010BDC04610B500F06F
S1131C0073FB002801DD002010BD012010BDC0467B
S1131C1010B500F029FB002801DC002010BD0120D4
S1131C2010BDC04610B500F01FFB002801DA0020EB
S1131C3010BD012010BDC0469E2110B5C905041C6D
S1131C40FFF7F0FF002803D1201C00F04BFE10BD6D
S1131C509E21201CC90500F0A9FC00F043FE80234E
S1131C601B069C466044F2E7F0B5C6464E024702A6
S1131C70760A7B0A4400C50FF7004800984600B571
S1131C80240E2A00DB00000EC90FBC468D4267D02B
S1131C90221A002A00DCA5E000283AD1002F00D146
S1131CA093E0511E002900D0BCE00124DB1B5A0143
S1131CB046D59B019E09300002F02AF8053886407B
S1131CC0844200DD9DE0041B320020200134E24008
S1131CD0041BA64033005E1EB341002413435A077D
S1131CE004D00F221A40042A00D004335A0129D503
S1131CF00134FF2C00D181E02A009B015B0AE4B28D
S1131D005B02E405580AD2072043104304BC904602
S1131D10F0BDFF2CE3D080213800C9040843844679
S1131D201B2A00DD82E020206146D140821A6046F1
S1131D3090400200501E82410A439B1A5A01B8D4B3
S1131D405A07CED1DE082A00FF2C3AD1002E00D14A
S1131D50AEE08023DB0333435B025B0AFF24CFE75F
S1131D60211A002952DD002831D0FF2CB7D0802061
S1131D703E00C0040643B4461B2900DDAAE0202629
S1131D806046C840711A66468E4031004E1EB1410D
S1131D9001435B185901D3D50134FF2C00D187E0EE
S1131DA0012278491A405B080B40134397E7002C43
S1131DB000D0A7E0002B00D0B6E03B1E62D1002685
S1131DC0002273025B0AE4B29AE7140087E7002F4B
S1131DD04DD0481E002857D1634401245A01AFD581
S1131DE00224DDE7002A24D1621CD2B2012ADEDDFE
S1131DF0DE1B720135D5FE1A0D005CE72A000023B4
S1131E007EE73300604A241A134068E7002963D14F
S1131E10611CC8B201284EDDFF2949D063445B0828
S1131E200C005CE7FF2A41D00A0079E701229B1AE3
S1131E3084E7002C1DD0FF2822D08024E4045242E1
S1131E4023431B2A00DD8AE01C002025D440AA1A63
S1131E5093405A1E9341234362460400D31A0D0053
S1131E6025E7002E00D026E700220024A9E70C0075
S1131E7035E7002B4DD0D243002AEDD0FF28E0D126
S1131E806346FF240D002AE7FF290FD0010073E702
S1131E90002B61D0FF24002F00D120E7802241468F
S1131EA0D203114202D0164200D13B00FF2416E7B0
S1131EB0FF24002324E7002CEAD1002B58D0002F64
S1131EC000D10CE763445A0100D439E72E4A0C00D0
S1131ED0134004E701215CE7002C1ED1002B40D005
S1131EE0C94300290BD0FF2836D01B2947DC1C002E
S1131EF02026CC40711A8B40591E8B4123436344E6
S1131F00040047E7002B18D13B1E2DD00D00FF2401
S1131F10E5E63B0004000D00E1E6FF281CD0802428
S1131F20E40449422343E0E7002F00D1D7E6DE1B57
S1131F3072011FD5FB1A0D00D1E6FF24002F00D13A
S1131F40CDE680224046D2031042AFD01642ADD136
S1131F503B000D00FF24C2E66346FF24BFE60123D5
S1131F607AE73B000400BAE680260022F603F0E696
S1131F703B00B4E6331E00D0E2E6002221E7012351
S1131F80BDE7C046FFFFFF7DFFFFFFFBF0B55746EF
S1131F904E46DE464546E0B544024300C60F83B0D4
S1131FA00F1C640A1B0EB24653D0FF2B27D080228D
S1131FB0E400D20414437F22524290469844002302
S1131FC099469B467D027800FB0F6D0A000E009334
S1131FD024D0FF2846D080230021ED00DB041D43DC
S1131FE07F384746381A4F460F43BF00B94633007F
S1131FF0009A874F53404A46BA5801939746002C9B
S11320004ED108239946F7339846FD3B9B467D0203
S11320107800FB0F6D0A000E0093DAD1002D26D153
S1132020002001213300009A7A4F53404246101A8F
S11320304A460A439200BA581D009746009B2C005A
S11320409A468B465B46022B31D15346FF2100242E
S113205038E0002C17D10423994600239846013315
S11320609B46AFE7FF20002D0BD10221DAE72800C1
S113207001F04EFE431F9D4076235B42181A002157
S1132080AFE70321ADE7200001F042FE431F9C406F
S113209076235B421B1A9846002399469B4691E798
S11320A00C239946F3339846FC3B9B468AE7032B63
S11320B000D1A5E05546012B00D081E00123002189
S11320C000242B406402C905600ADB070843184357
S11320D003B03CBC90469946A246AB46F0BD802472
S11320E00023E403FF21EDE7FF210024EAE70123B5
S11320F0591A1B2966DD019A134000210024E1E7E7
S11321008023DB031C4238D01D4251D01C4364029F
S1132110640A3300FF21D5E763016C01A3423BD27B
S11321201B260021013801251F0049005B00002FF8
S113213001DB9C4201D81B1B2943013E002EF3D135
S11321401C00631E9C410C4301007F310029CEDD3D
S1132150630704D00F232340042B00D0043423014D
S113216003D501002C4B80311C40FE290DDD0123D9
S1132170019AFF2113400024A4E78023DB031C43BE
S11321806402640A3300FF219CE70123019AA4013D
S1132190640AC9B2134095E71B1B1A260121C2E742
S11321A0009B8B469A4600244CE76302E5D5002544
S11321B08024E4032C436402640A009BFF2181E72A
S11321C00195C1E723002020CB40411A8C40611EB9
S11321D08C411C43630704D00F232340042B00D0FD
S11321E00434630105D50123019A0121134000241D
S11321F068E70123019AA401640A1340002161E7FE
S11322008023DB031C436402640A5346FF2159E71D
S1132210184A0000584A0000FFFFFFF770B542005B
S113222045024E024C00C30F6D0A120E760A240EAC
S1132230C90F0120FF2A06D0FF2C03D0A24201D1EE
S1132240B54206D070BD002DFCD1FF2CFAD1002E72
S1132250F8D18B4206D00120002AF3D12800451E74
S1132260A841EFE70020EDE7F0B5420045024C023B
S1132270C30F48006D0A120E640A000EC90FFF2A2C
S11322801ED0FF2821D0002A0AD16E426E41F6B238
S113229000280FD1002C0DD10020002D09D005E01D
S11322A0002801D1002C01D08B4211D001215842C9
S11322B00843F0BD002EF7D0012001390843F8E7A8
S11322C0002DDED002204042F3E7002CDBD0F9E7FA
S11322D08242EBDC04DBA542E8D80020A542E8D228
S11322E00121581E0843E4E7F0B542004D024C00BA
S11322F04602760A120EC30F6D0A240EC90FFF2A76
S113230016D0FF2C18D0002A0AD170427041C0B2F6
S1132310002C15D0002805D0012001390843F0BD58
S1132320002C13D0994214D001205B421843F6E7E5
S11323300220002EF3D1E4E70220002DEFD1E2E7E2
S1132340002DE7D10020002EE9D0EDE7002DE9D1E2
S1132350EAE7A24206DCDFDBAE4203D80020AE424D
S1132360DAD3DCE7012049420843D8E7F8B55746F9
S11323704E464546DE46E0B54702460088467F0A9B
S1132380360EC40F002E47D0FF2E24D0FB0080272A
S1132390FF041F43002399469A467F3E43465D024D
S11323A05800DB0F6D0A000E984643D0FF283BD03F
S11323B0EB0080250022ED041D437F383618731C82
S11323C041469B464B46614013430F2B64D87548E6
S11323D09B00C3589F46002F42D108239946063BD1
S11323E0FF269A46DAE74146022A28D0032A00D17A
S11323F0CEE0012A00D0ACE0114000200022CCB293
S11324004002D205400AE407104320433CBC9046F6
S11324109946A246AB46F8BD002F15D10423994630
S1132420033B00269A46B9E7FF200222002DC5D0BF
S11324300322C3E7002D19D100200122BEE70124A5
S1132440FF220C400020DBE7380001F061FC762617
S1132450431F9F4000237642361A99469A469DE7C9
S11324600C239946093BFF269A4697E7280001F07A
S11324704FFC431F9D4076235B42181A00229DE7C0
S113248080200024C003FF22BAE73D005246ABE798
S11324903D0021005246A7E73B0C9C462A04120C3F
S11324A02B0C1400604665463F043F0C7C434243BA
S11324B05D437B43270C9B18FF18BA4203D9802342
S11324C05B029C46654424043A04240C12199301CB
S11324D05C1EA3413F0C920E7D191A43AD011543B6
S11324E02B0104D501235E466A081D4015433200C2
S11324F07F32002A25DD6B0704D00F232B40042BE9
S113250000D004352B0103D53200274B80321D4007
S1132510FE2A94DC0124A801400AD2B20C406FE7E1
S11325208020C003074207D0054205D1284340025A
S1132530400A4446FF2263E738434002400AFF2230
S11325405EE70124A31A1B2B05DD0C4000220020AA
S113255056E75E46CBE72A002020DA40C31A9D40A6
S11325602B005D1EAB4113435A0704D00F221A40BF
S1132570042A00D004335A0104D5012401220C405A
S113258000203DE701249B01580A0C40002237E754
S113259080200124C00328434002400A0C40FF224B
S11325A02EE7C046984A0000FFFFFFF7F0B54F46FC
S11325B0D64646464400C0B5C20F47024802400A08
S11325C0844666467B0A4800C90F9A46240E1500C5
S11325D0DB00000E8946F600FF2800D18FE00121C0
S11325E04F464F403900914266D0221A002A00DC3F
S11325F09DE000283DD1002E00D18BE0511E002922
S113260000D0B5E001249B1B5A0144D59B019F09CE
S1132610380001F07DFB05388740844200DD96E0F8
S1132620041B3A0020200134E240041BA7403B0075
S11326305F1EBB41002413435A0704D00F221A40E3
S1132640042A00D004335A0127D50134FF2C00D1C9
S113265079E001229B015B0AE4B22A405B02E405B3
S1132660580AD207204310431CBC90469946A24600
S1132670F0BDFF2CE0D08021C9040E431B2A7BDC73
S113268031002020D140821A9640721E96410E439A
S11326909B1B5A01BAD45A07D0D10122DF082A4021
S11326A0FF2C33D1002F00D1A8E08023DB033B4370
S11326B05B025B0AFF24D1E7211A00294CDD0028C4
S11326C02AD0FF2CB8D08020C00406431B2900DD8B
S11326D0AFE030002027C840791A8E40711E8E4129
S11326E006439B195901D6D50134FF2C00D185E04E
S11326F001227A491A405B080B4013439CE7002EE1
S113270000D070E76BE73B1EC5D100227B025B0A59
S1132710E4B2A3E714008FE7002E4DD0481E002832
S113272057D19B1901245A01B5D50224E0E7002AA8
S113273025D1621CD2B2012A72DD9F1B7A0135D5E4
S1132740F71A0D0064E7012200232A4086E73B00C4
S1132750634A241A13406FE700296CD1611CC8B284
S113276001284EDDFF2949D09B195B080C0063E763
S1132770FF2A41D00A0081E701269B1B89E7002C30
S11327801CD0FF2821D08024E404524223431B2A76
S113279000DD96E01C002025D440AA1A93405A1E5E
S11327A093412343F31A04000D002DE7002F00D0BA
S11327B02EE700220024A9E70C003DE7002B58D0A7
S11327C0D243002AEED0FF28E1D13300FF240D00CC
S11327D032E7FF2910D0010078E7002B6ED0FF24E8
S11327E0002E00D128E780225146D203114203D0A3
S11327F06146114200D13300FF241DE7FF2400236A
S11328002CE7002CE9D1002B63D0002E00D113E774
S11328109B195A0100D43EE7314A0C0013400BE7E0
S1132820002C1ED1002B2FD1002E4FD033000D00D1
S113283002E7012655E7002C1FD1002B43D0C943E2
S113284000290BD0FF2839D01B2944DC1C00202789
S1132850CC40791A8B40591E8B4123439B190400A9
S113286040E7002B1AD1002E24D180270022FF0339
S11328701BE7330004000D00DEE6FF281ED0802491
S1132880E40449422343DFE7002E00D1D4E69F1B32
S11328907A0100D437E7F31A0D00CDE6FF24002EA9
S11328A000D1C9E680225046D2031042A4D060462B
S11328B01042A1D133000D00FF24BDE63300FF24F4
S11328C0BAE601236EE733000400B5E600270022D0
S11328D01CE73300B0E60123C0E7C046FFFFFF7DDD
S11328E0FFFFFFFB41024300C20F490A1B0E0020F9
S11328F07E2B0DDD9D2B0CDC802000040143952BE9
S11329000ADC9620C31AD9404842002A00D10800A4
S11329107047034BD018FBE7963B9940F4E7C04659
S1132920FFFFFF7F70B5002830D0C317C4185C4088
S1132930C50F200001F0ECF99E231B1A962B0DDC29
S11329409622D21A94402A006402640ADBB264021A
S1132950DB05600AD2071843104370BD992B19DCBC
S11329609922D21A002A29DD94402200144C1440E2
S1132970510704D00F210A40042A00D00434620114
S113298013D4A401640ADBB22A00E0E70022002386
S11329900024DCE705222100121AD140B922D21A00
S11329A09440621E94410C43DAE7054B2A001C4014
S11329B09F23A4011B1A640ADBB2C8E72200D5E7EF
S11329C0FFFFFFFBF0B557464546DE464E46E0B5F1
S11329D04C000E0387B0834692461D008046360B9A
S11329E0640DCF0F002C4FD06F4B9C4235D0802309
S11329F0420F1B04F600134333439946C300984621
S1132A006A4B00269C460023644403932B031B0B50
S1132A109B466B00ED0F50465B0D01955ED0624AFC
S1132A20934253D05A46D1008022400F12040243ED
S1132A300A4393465246D1005C4A944600226344BA
S1132A403800684084460290E41A16430F2E00D9D9
S1132A50B4E0574BB6009B599F4603003343994655
S1132A606CD100239846023308260393CEE7CB4665
S1132A704146039A0197022A65D1019B4A4C9C4620
S1132A800023002298466BE00300334399464ED05E
S1132A90002E00D1BCE1300001F03AF903000B3BF9
S1132AA01C2B00DDACE11D22D31A5A460100DA408A
S1132AB008398E401300334399465B468B40984651
S1132AC000233C4C0026241A03939FE751465A46A0
S1132AD0114329D1002293460232B1E759460143FA
S1132AE01ED05B46002B00D19EE1584601F010F940
S1132AF003000B3B1C2B00DD8FE102005946083A12
S1132B0091408B461D21CB1A5146D9400B005946A2
S1132B100B4351469B469140264B00221B1A8FE7DC
S1132B20002301229B468BE75146032288E70023BA
S1132B309846013304260024039367E70323B14630
S1132B4003930C2662E7032A00D15CE2019B012A6D
S1132B5000D0E4E113409C46002300240022984660
S1132B6000211203130B0A0D12051A432305124CFC
S1132B7040462240134362465B00D2075B0813437E
S1132B80190007B03CBC90469946A246AB46F0BD3E
S1132B90002380229C4612039846034CE0E700235E
S1132BA0014C00229846DBE7FF07000001FCFFFF11
S1132BB0D84A00000DFCFFFFFFFF0F80D94500D964
S1132BC039E100D134E1002346464D469A46013CA2
S1132BD05B460A0E1B021A430B02170C03931304E1
S1132BE01B0C3900280090460193FEF75FFF02009A
S1132BF0019B83465A43280039009146FEF7DCFFC7
S1132C00350C09040D43A9450DD95B464544013BE8
S1132C10A84500D93AE1A94500D837E102235B422F
S1132C209C464544E3444B46EB1A39001800049390
S1132C30FEF73CFF019B0500434339000498994685
S1132C40FEF7BAFF330409041B0C0B43994509D959
S1132C5043446A1E984500D91AE1994500D817E102
S1132C60023D43444A469B1A5A4612042A43039996
S1132C709346100C0A0C914609045A46090C4E4618
S1132C800D001204120C45430591514372437043E5
S1132C9052190E0CB218954203D980256D02AC4628
S1132CA06044150C09041204090C281852188342B4
S1132CB000D2CEE000D1C8E01D1A53469E1AB24598
S1132CC092415242AB1A9A46984500D117E1390015
S1132CD01800FEF7EBFE019B050043433900504604
S1132CE00493FEF769FF04980B04310C19438842DE
S1132CF009D941446B1E884500D907E1884200D8B0
S1132D0004E1023D4144049BCB1A180039000493AA
S1132D10FEF7CCFE019B824643433900049801939D
S1132D20FEF74AFF01980B043104090C1943884249
S1132D300DD953464144013B884500D9E8E0884217
S1132D4000D8E5E002235B429C464144E244019BF7
S1132D502D04CE1A51462943059D4F462A000B04E3
S1132D60080C1B0C5A4345437B4378435B19170CEF
S1132D70FB189D4203D980256D02AC4660441D0CAE
S1132D8012041B04120C28189B18864200D293E0EC
S1132D9000D18EE001231943A04BE318002B00DC83
S1132DA099E04A0700D09EE05A46D20106D55A4619
S1132DB09B4B1A4080239346DB00E318994A9342C5
S1132DC068DD0123029A984C1A40002394469846E1
S1132DD00022C5E680224B46120313420AD05B460A
S1132DE0134206D11A431203120BAC4688468E4C8A
S1132DF0B6E64B461A431203120BBC468A4CAFE6A6
S1132E0003005A46283B9A4000239146984657E6C9
S1132E10584600F07DFF203040E603005246283B30
S1132E209A400021934677E600F072FF20305FE677
S1132E30884500D2C7E64B46DE075D0843465B087B
S1132E401E434346DB079A46C2E60025924500D35B
S1132E5033E7039E5946B446E244B245AD416D4260
S1132E604544EB180139984507D2984200D97FE0D0
S1132E7000D1BCE01D1A8B461FE79845FAD1039D8B
S1132E805545F2D943468B461D1A16E79B46CAE6BA
S1132E901500E7E65A46C90852070A435B059046FF
S1132EA05C0D5A460123029952021940120B8C46BA
S1132EB056E6002B00D16FE746444A1EB04529D997
S1132EC01100864200D065E7039A934200D061E77F
S1132ED062E7012149420120C21A382A21DD029BFE
S1132EE003409C4638E60F220A40042A00D15BE7DF
S1132EF00A00111D914292415242934454E7474BB8
S1132F00E318002BE5DD01225242F2E71D00FAE648
S1132F109A461CE7B04239D86ED011003AE70293C2
S1132F203AE71F2A3CDC20239B1A0C0058469940A0
S1132F3098404B1E99415B46D440D34020430843FC
S1132F401A00430709D00F230340042B05D00100C6
S1132F50081D88429B415B42D21813023AD50123D3
S1132F60029A01241A400023944698460022F7E569
S1132F70022149428C46039DE344AC46E244AA45FF
S1132F80AD416D424544ED182D1A96E68A1E03990B
S1132F904D008D42894149424144761803958FE79B
S1132FA01F204042C31A5846D8400300202A28D084
S1132FB040205D46821A954029434A1E9141194397
S1132FC0072300220B4009D00F2300220B400800E6
S1132FD0042BBDD1010053075202120BC908194337
S1132FE0012388460299002419408C46B8E55245CD
S1132FF0BED88B46002560E6039D9D42C6D31100D2
S113300062E70025D8E780225B4612031A43019B3E
S11330101203120B9C468846034CA1E5FF030000F3
S1133020FFFFFFFEFE070000FF070000F0B5574654
S11330304546DE464E46E0B50C0398464E00230B4B
S113304087B0070092469B46760DCD0F002E6BD0BD
S11330506D4B9E4235D080245B46420F2404DB0036
S113306014431C43C3009946684BA3469C46002363
S113307000276644029343461C035A00DB0F504664
S1133080240B520D984600D176E05F4B9A426DD0E6
S11330908023410F1B040B435C49E4008C461C4312
S11330A0C300002062444146B6186940721C019175
S11330B0944607430F2F00D9B0E0554ABF00D259B8
S11330C097465B460343994600D087E000239B461E
S11330D0023308270293CEE742460192022867D0C2
S11330E0032800D10EE2012800D062E1002300246D
S11330F00022994601990140CDB2002112030B0D23
S1133100120B1B051343434A240513401C4364005C
S1133110ED0764082C434846210007B03CBC9046A8
S11331209946A246AB46F0BD034399464FD05B4651
S1133130002B00D189E1584600F0EAFD03000B3B67
S11331401C2B00DD7AE11D22D31A3A0001005C46F3
S1133150DA4008398C4013008F4023439B46B9461C
S113316000232D4E0027361A029384E75346234347
S11331702AD10024022096E75346234320D0002C72
S113318000D157E1200000F0C3FD03000B3B1C2BD2
S113319000DD49E11D21CB1A51460200D9405346B6
S11331A0083A944093400C431B4A121A00207AE7D1
S11331B00125019B144C1D400023002299469CE7E5
S11331C00024002201206EE7534603206BE700230E
S11331D09B4601330427002602934CE703238146D0
S11331E00C27029347E78022002300251203994607
S11331F0054C82E75C464B4602986FE75C464B46BB
S1133200019502986AE7C046FF07000001FCFFFF32
S1133210184B0000FFFF0F800DFCFFFF4A46494694
S1133220170C1A0C1B041B0C08041900000C414356
S11332301500884619007D43794303958946290082
S1133240150045434D44029545462D0CAA46029D62
S11332505544A94506D98A46802149028946CA446B
S113326051460391290C0491414609042D04090C8B
S113327088462900250C24044144240C059121008E
S113328041438846210079438A4668434146504475
S11332908146080C48446F43824503D98021490282
S11332A089464F44010C89463900494402914146FC
S11332B00F0404993F0C88460004C0198044414619
S11332C0049159460F0C0904090C884659438A464F
S11332D039005143894641464A435146090C8B46BD
S11332E07B43D2185A44934203D980235B029B4602
S11332F0D94451460904090C8A46414661437C433A
S1133300130C12044B445244A1468A463C004146E5
S11333106C434D4351464D440F0C7D19A94503D9C7
S11333208021490288464444049F0399B846414495
S11333308B468345804141428846514608042F0408
S1133340000C3F1858460299101889469042924141
S11333504F44BA46524299469346C244D144CB4460
S11333608F42BF41C245894199459B419345924152
S11333707F4249422D0C52420F435B4213437F1953
S1133380FF185B463C19DB0D059A64021C4343029B
S113339013435D1EAB415A46C00D0343520213430F
S11333A0E20156D501205A0803401343E2071343B0
S11333B064085A48604400284DDD5A0709D00F229A
S11333C01A40042A05D01A1D9A429B415B42E41814
S11333D01300E20104D58020514AC0001440604427
S11333E0504A904200DDE3E60125DB0862071A43F8
S11333F06402019B9146220B4405640D1D407CE64A
S1133400802259461203114208D0144206D12243A5
S11334101203120B45469946434C6EE65B461A432B
S11334201203120B404C68E603005446283B9C40B0
S11334300023B9E600F06CFC2030A6E60300283B2C
S11334409F400023BB4699468AE600F061FC203089
S113345074E6B446ADE701252A1A382A06DD019B35
S113346000241D4000230022994646E61F2A21DC41
S113347020252000AD1A1E00AB40A840D6405D1E9A
S1133480AB4130431843D440430709D00F230340D2
S1133490042B05D00300181D98429B415B42E4189D
S11334A0230221D50125019B01241D400023002274
S11334B0994622E61F2521006D42281AC1400800C2
S11334C0202A1DD05F35AA1A944023435C1EA341D1
S11334D0072503431D400022002D09D00F2200249C
S11334E01A401800042AD6D1030065076402220B8F
S11334F0DB082B4301259946019B00241D40FCE574
S11335000024E2E7802201251203224301991203D9
S1133510120B0D409946044CEFE5C046FF03000032
S1133520FFFFFFFEFE070000FF070000F0B5464660
S1133530D6464F460C03C0B5CD0F4E00610A440F6A
S11335400C43C1005800400D84468A460F001903FD
S1133550500F490A0143C648760DA846DB0FD20036
S1133560844500D1D8E001204340AB4200D1A6E01D
S11335706046351A002D00DC05E1002810D10B004F
S1133580134300D1D7E06B1E002B00D04BE1534610
S11335909F1ABA458041641A4042241A01261EE04B
S11335A0B34B9E4248D080231B041943382D00DDC1
S11335B019E11F2D00DD4CE120230F005B1B1000DF
S11335C09A409F40E840531E9A41E94007431743FD
S11335D05346DF1B611ABA45A44164420C1B230203
S11335E000D4C5E06402650A002D00D1F6E028008D
S11335F000F08EFB0300083B1F2B00DDE9E02022D6
S11336003C00D21A9D40D4409F4025439E4200DD99
S1133610DBE09E1B731C1F2B00DD0AE12022380017
S1133620D21A290097402C009140D8407A1E974125
S1133630DC40002601430F437B0709D00F233B40A6
S1133640042B05D03B1DBB42BF417F42E4191F0040
S1133650230225D5864B01369E4200D1AFE0854B2F
S113366001251C4043466207FF08640276051743A0
S1133670240B760D1D4000212403230B0C0D7E4AE0
S113368024051C431440330523435B00ED075B080A
S11336902B43380019001CBC90469946A246F0BD45
S11336A0012543466207FF081743E4081D40704B99
S11336B09E4236D024037605240B760DDBE7634661
S11336C0F31A002B00DC94E06046002835D06848EB
S11336D08642B1D080273F043943382B00DCFDE01B
S11336E00A43170000217A1E9741574457458041E9
S11336F0091944420C1923023AD55D4B01369E4206
S113370000D14BE101225B4B1C407B0817401F4357
S1133710E207174364088FE70800104300D024E74A
S113372021E723003B4300D1B9E180221203144373
S11337302403240B9FE72E007EE70800104300D1EA
S1133740CAE0581E8446002800D0E7E0524452459F
S1133750804164184042241817000126230207D52B
S11337600226CFE764462C4300D1B3E12C00674620
S11337707B0700D062E76307FF081F430125434628
S1133780E4081D4093E7002D78D1751C6D056D0D7F
S1133790012D00DCF2E05046801A8245BF41651AD3
S11337A07F42ED1B8446280200D48CE05046171A51
S11337B0BA4292410C1B5542651B984614E70125F9
S11337C0434600241D40002755E72A4CF61A2C4096
S11337D032E73D0028388540002717E7380000F01D
S11337E097FA203006E70A43170000217A1E974112
S11337F0EEE6002B00D0E5E0731C9C465B055B0DF8
S1133800012B00DC9FE01A4B9C4500D1C5E05244DB
S113381052458041641840422418E7075208174370
S11338206408664608E71248854200D185E01D0019
S1133830BCE629001F3EF140202B00D17FE040224E
S1133840D31A9D402F437D1EAF4100240F43002611
S11338508EE72B000F00203BDF40202D71D040234A
S11338605D1BA9400A43511E8A4100211743AFE65C
S1133870FF070000FFFF7FFFFFFF0F80002E3ED0F9
S1133880B34EB44545D0802636046D423443382DBA
S113389000DDA8E01F2D00DD1FE120262700504693
S11338A0761BB740E84007435046B040461EB0413F
S11338B0EC403843171ABA4292410C1B5242A41AE4
S11338C0664698468BE6644667462C4300D08BE6F2
S11338D0002500260027EAE61E00ADE61F2B60DC6B
S11338E02027F81A0F00844687401000D840074369
S11338F060468240501E8241D9401743F5E62600B7
S11339005046064305D0ED43002DD3D0904EB44528
S1133910BDD10C001700664698468DE68C4883425C
S11339200BD06346D9E6002D00D096E00800104382
S113393000D1E2E00C0017009846854E7CE6002595
S113394080E700218EE7230050460343002E00D079
S1133950A8E0002B00D1DEE00B00134300D16BE69E
S113396052445245804164184042241817002302EF
S113397000D4FDE6774B66461C405DE625005046C4
S11339800543002ECFD1002D4FD10C00144300D19C
S1133990A0E00C00170098464EE666460024002777
S11339A085E61F000800203FF8400700202B00D1C7
S11339B08EE04020C31A99400A43511E8A410021D7
S11339C0174392E6002E14D126005046064362D0D7
S11339D0DB43002B5CD18718974292416418524212
S11339E0A418664687E650462043441EA04100249E
S11339F060E7574EB4454ED0802636045B423443CC
S1133A00382B00DD7FE01F2B00DD8BE02026270014
S1133A105046F61AB740D84007435046B040461EB9
S1133A20B0410743DC40BF18D6E70D00154300D171
S1133A3002E65046801A8245BF41651A7F42ED1B5B
S1133A408446280200D48DE65046171ABA429241A1
S1133A500C1B5242A41A9846EEE50D00154300D102
S1133A606BE750466707C00807438020E40800035B
S1133A70044207D0CD08054204D12C009846D7084B
S1133A8049070F437B0FE4001C43FF00304ED3E58E
S1133A902F4EB445B4D10C0017006646CCE5002780
S1133AA00024E8E5002B39D00B00134300D144E790
S1133AB0C008670707438020E40800030442E1D0FC
S1133AC0CB080342DED1D70849070F431C00D9E7CE
S1133AD0002171E700250027E9E52E002700203E9C
S1133AE0F740202D2FD04026751BAC405046204374
S1133AF0441EA04100243843DCE68024002524032E
S1133B00134E0027D3E5504620430700781E874113
S1133B100024BF1860E70C0017008DE50C001700A7
S1133B200B4E89E51E002700203EF740202B0CD0C9
S1133B304026F31A9C4050462043441EA0410743AC
S1133B400024BF1848E70024D0E70024F3E7C04668
S1133B50FF070000FFFF7FFF4100090E4B1C70B5FB
S1133B60DBB24602750AC40F012B14DDE0239B006F
S1133B706D07360BCB1800210A0D280012051C4DC9
S1133B8032435B052A405B0813435B00E4075B0890
S1133B902343190070BD002914D1002D1ED0280024
S1133BA000F0B6F80A281CDC0B232A001B1ADA40A2
S1133BB0030015339D400F4B12031B1A5B05160BB4
S1133BC05B0DD8E7002D06D0320B802636036D0737
S1133BD01643094BCFE7084B0026CCE70023002609
S1133BE0C9E703002A000B3B9A400025E3E7C046DF
S1133BF0FFFF0F8089030000FF070000F0B54C00B1
S1133C00640D0B03621C450F5B0A52052B43C90F5D
S1133C10C500520D012A28DD3A4AA618FE2E1BDCE7
S1133C20002E3EDD80010200501E82416D0F2A43AA
S1133C30DB0013435A0704D00F221A40042A00D091
S1133C4004338022D2041A405AD00136FF2E03D006
S1133C509B015B0AF4B201E0FF2400235802E4054F
S1133C60400AC90720430843F0BD002C07D01D4378
S1133C70F2D08020DB0080040343FF26DAE72B43E5
S1133C8003D00523DB08FF2C03D05B025B0AE4B2FC
S1133C90E4E7002B32D08020C00303435B025B0ABD
S1133CA0DCE73200173214DB80221E271204134390
S1133CB0BF1B1F2F0FDC144A944664442A00A540FE
S1133CC02E00A340751EAE41FA4033431343002631
S1133CD0B0E70024D5E702225242961B1A00F240B4
S1133CE0202F09D0094884466444A3402B435D1E19
S1133CF0AB41002613439DE70023F7E70023ADE71C
S1133D003400BFE780FCFFFF82FCFFFFA2FCFFFF43
S1133D101C2101231B04984201D3000C10391B0AF7
S1133D20984201D3000A08391B09984201D30009BB
S1133D30043902A2105C40187047C0460403020212
S1133D4001010101000000000000000070B5002620
S1133D500C4D0D4C641BA410A64209D1002600F0A2
S1133D6045FF0A4D0A4C641BA410A64205D170BD40
S1133D70B300EB5898470136EEE7B300EB58984789
S1133D800136F2E7F84B0000F84B0000F84B000056
S1133D90FC4B0000002310B59A4200D110BDCC5C4E
S1133DA0C4540133F8E703008218934200D17047EA
S1133DB019700133F9E70023C25C0133002AFBD1F7
S1133DC0581E704770B50400002A00D170BD0D78EC
S1133DD0561E631C25700131002D05D1A4189C4288
S1133DE0F4D01D700133FAE71C003200ECE730B563
S1133DF014009BB005001A00002C05DA8B23036025
S1133E00012040421BB030BD822368469B00838161
S1133E100023009104919C4200D0631E02930593F9
S1133E20012369465B42CB8128001E9B00F0D6F833
S1133E30431C01DA8B232B60002CE3D00023009A6F
S1133E401370DFE707B5009313000A00010002486E
S1133E500068FFF7CCFF0EBD00000020032370B5FF
S1133E60CD1C9D43083506000C2D1ED20C25A942FD
S1133E701DD8300000F06DFB254A1468210000298C
S1133E8019D1244C2368002B03D1300000F032FBFD
S1133E9020602900300000F02DFB431C2CD10C23A2
S1133EA03000336000F056FB03E0002DDFDA0C2312
S1133EB03360002070BD0B685B1B1AD40B2B03D935
S1133EC00B60CC18256003E08C420ED1636813604C
S1133ED0300000F03FFB200007220B30231D9043ED
S1133EE0C31AE7D05A42E250E4E74B6863600C001F
S1133EF0EEE70C004968C2E70323C41C9C43A042BC
S1133F00E0D0211A300000F0F5FA431CDAD1C6E7FC
S1133F10BC000020C0000020F0B58E6885B007000A
S1133F200C00039201939E4239D890238A89DB00C6
S1133F301A4234D00325096923685B1A0293636922
S1133F4002985D43EB0F5D19019B6D1001331B1843
S1133F50AB4200D91D00530532D529003800FFF7C4
S1133F607DFF061E09D10C233B6040230120A2895A
S1133F7040421343A38105B0F0BD029A2169FFF7C3
S1133F8009FFA389144A1A4080231343A381029B87
S1133F902661F61826606561019EED1AA560019BF5
S1133FA0B34200D21E0032000399206800F0BFFA29
S1133FB0A36800209B1BA36023689E192660DAE790
S1133FC02A00380000F012FB061EE0D121693800F7
S1133FD000F0C2FAC7E7C0467FFBFFFFF0B59FB011
S1133FE0029005938B890F0016001B0611D50B69EF
S1133FF0002B0ED14021FFF731FF386038610028D3
S113400005D10C23029A013813601FB0F0BD402380
S11340107B61002306AD6B6120336B761033AB7686
S113402034002378002B47D1A31B04930DD0A31B8A
S1134030320039000298FFF76FFF431C00D1B5E04E
S11340406A69049B944663446B612378002B00D116
S1134050ACE00122002352426A6002A95432521891
S113406001342B60EB60AB601370AB65584E0522D6
S11340702178300000F050FA621C002820D1296811
S1134080CB0604D5532302AE20309B1918700B07BE
S113409004D553232B2002AE9B19187023782A2BA6
S11340A016D000200A21099B2278303A092A55D9D2
S11340B0002815D0099313E0252BB5D00134B0E7BF
S11340C00123801B8340296814000B432B60CDE738
S11340D0059B181D1B680590002B39DB0993140000
S11340E023782E2B0BD16378621C2A2B3ED1059B9F
S11340F002341A1D1B680592002B34DB0793354EDE
S113410021780322300000F007FA002806D040236B
S1134110801B83402A68013413432B6021780622D4
S11341202D48661C297600F0F7F9002846D02B4B61
S1134130002B2FD12968059B0722C90528D59B1878
S11341409343083305936B69039A9B186B6167E784
S11341505B42EB6002230B432B60C0E74B4301340B
S11341609B180120A0E701235B42C7E7002314004A
S11341700A201A006B6021783039092903D9002BF1
S1134180BDD00792BBE74243013452180123F2E742
S11341900733D5E705AB00933A00114B2900029889
S11341A000E000BF0390039B0133CCD1BB890B9883
S11341B05B0600D429E70120404226E705AB0093C3
S11341C03A00074B2900029800F07AF8EAE7C04663
S11341D0B84B0000BE4B0000C24B000000000000C2
S11341E0193F0000F7B5150001938A680B69009028
S11341F00C00934200DA130022002B604332127841
S1134200002A01D001332B6023689B0602D52B685A
S113421002332B60062723681F4027D02300433333
S11342201B785A1E93412268920630D422000199C9
S113423043320098089EB047431C25D006232068CB
S11342402A68E16803400025042B03D18D1AEB434F
S1134250DB171D40A3682269934201DD9B1AED1808
S11342600027BD4220D1002010E00137E3682A680E
S11342709B1A9F42D2DA2200012319320199009835
S1134280089EB047431CF0D101204042FEBD3020BF
S1134290E1184331087021005A1C45310978A218ED
S11342A0433202331170C1E7220001231A3201990B
S11342B00098089EB047431CE6D00137D1E70000C0
S11342C0F0B58BB006920A0043320793059004922E
S11342D00A7E0C00109B6E2A00D18FE017D8632A47
S11342E02CD008D8002A00D199E0582A54D02600AE
S11342F04236327029E0642A01D0692AF7D1216854
S11343001A68080623D5111D1960156825E0732A5B
S113431000D188E008D86F2A29D0702AE7D120225A
S113432009680A43226003E0752A20D0782ADED186
S113433022007821453211706C4A30E00E001A6870
S11343404236111D196013683370012379E0490660
S1134350D9D5111D19600023D55E002D03DA2D2354
S1134360049A6D421370624B0A2703932FE020686E
S11343701968050603D5081D18600D6805E0400698
S1134380F9D50D68081D1860ADB2594B0827039381
S11343906F2A18D00A2716E045310A70544A03924E
S11343A01A682168101D18601568080622D5CB0705
S11343B002D52023194321601027002D03D1202387
S11343C022689A4322602300002243331A706368F0
S11343D0A360002B5CDB0422216891432160002D43
S11343E058D1049E002B64D02600039B42361B78D0
S11343F033705EE04806DAD5ADB2D8E709681A68CA
S1134400080605D5111D1960136862691A6006E073
S11344104906F7D5111D19601368A28A1A80002372
S1134420049E236154E01A68111D19601668002166
S11344306268300000F070F8002801D0801B6060D2
S1134440636823610023049A137041E023693200F6
S113445006990598079DA847431C43D02368002567
S11344609B070FD4099BE06898423DDA18003BE0B3
S113447022000123193206990598079EB047431C70
S113448030D00135E368099A9B1A9D42F0DBE9E7D5
S1134490002DA9D0049E28003900FDF78DFB039B55
S11344A0013E5B5C280033703900FDF7FFFA051EFE
S11344B0F1D1082F09D12368DB0706D56368226987
S11344C0934202DC3023013E3370049B9B1B236127
S11344D0079B09AA00932100069B0598FFF782FE1B
S11344E0431CB3D1012040420BB0F0BDDA4B0000B5
S11344F0C94B0000002370B5064C0500080023607A
S1134500FCF7DAF9431C03D12368002B00D02B609D
S113451070BDC04694010020C9B28218904201D1F6
S11345200020704703788B42FBD00130F6E710B5CA
S1134530884202D98B18984208D300239A4207D0A4
S1134540CC5CC4540133F9E78B5C8354013AFBD24D
S113455010BD70477047000070B50500002910D0E9
S11345600C1F2368002B00DAE4182800FFF7F1FF82
S11345701D4A1368002B05D1636014602800FFF7FF
S1134580E9FF70BDA34209D9216860188342F3D1C1
S113459018685B6841182160EEE713005A68002A26
S11345A001D0A242F9D919685818A0420BD1206849
S11345B00918581819608242E0D1106852684118ED
S11345C019605A60DAE7A04202D90C232B60D5E7C0
S11345D021686018824203D1106852684118216032
S11345E062605C60CAE7C046BC000020F8B5070002
S11345F00D001600002905D11100FFF72FFC04005F
S11346002000F8BD002A03D1FFF7A6FF3400F7E726
S113461000F012F82C008642F2D931003800FFF77E
S11346201DFC041EECD029003200FFF7B3FB290067
S11346303800FFF791FFE3E70B1F1B68181F002BDF
S113464001DA0B58C01870472E2E2F68616C2F7337
S113465072632F68616C5F6932635F6D5F73796E3B
S1134660632E63002E2E2F68616C2F7372632F6884
S1134670616C5F696F2E63002E2E2F68616C2F733F
S113468072632F68616C5F75736172745F617379B3
S11346906E632E63000000002E2E2F68616C2F7550
S11346A074696C732F7372632F7574696C735F72A2
S11346B0696E676275666665722E630005000000A8
S11346C0040010400000030015FB0000000000007F
S11346D0010000001400200000010000220000007E
S11346E00000D70000127A00000000000000000063
S11346F000000000000000000000000000000000B6
S11347000000000000000000000000002E2E2F68B2
S1134710706C2F736572636F6D2F68706C5F736557
S113472072636F6D2E63000043686970204E616D83
S1134730653A200925730D0A000000004D616E756D
S113474066616374757265723A200925730D0A00F7
S1134750496E746572666163652050726F746F632D
S11347606F6C3A200925730D0A00000053757070B0
S11347706C7920566F6C74204D61783A2009252E8F
S1134780316620560D0A0000537570706C792056FE
S11347906F6C74204D696E3A2009252E31662056BF
S11347A00D0A00004D6178696D756D204375727254
S11347B0656E743A2009252E31662075410D0A0074
S11347C04D61782054656D70657261747572653AD7
S11347D02009252E316620430D0A000044697665C0
S11347E0722056657273696F6E3A20090956252E38
S11347F031662E252E32640D0A00000054656D705A
S113480020433A20252E32640D00000054656D705B
S113481020463A20252E32640D00000048756D694B
S1134820646974793A20252E32660A0073657269C8
S1134830616C206E756D626572203A20256C750D71
S113484000000000FDF6E00039322F241E150000A0
S11348507368743430783A206661696C65642074D6
S11348606F2025732E0D0A007368743430783A2053
S113487064656C61795F6D73206973206E756C6C0F
S11348800D0A00007368743430783A206932635F2B
S1134890696E6974206973206E756C6C0D0A000072
S11348A07368743430783A206932635F6465696E82
S11348B06974206973206E756C6C0D0A0000000029
S11348C07368743430783A206932635F7265616466
S11348D0206973206E756C6C0D0A00007368743463
S11348E030783A206932635F77726974652069733E
S11348F0206E756C6C0D0A00696E697469616C696F
S11349007A6520693263000064652D696E69746993
S1134910616C697A65206932630000006765742000
S1134920693263206164647265737300676574201F
S11349306465766963652076617269616E740000EE
S1134940726561642074656D7020616E64206875A1
S11349506D696469747900006765742073657269B0
S1134960616C206E756D626572000000616374692C
S1134970766174652068656174657200746F207275
S1134980657365740000000053485434300000001F
S11349904932430053656E736972696F6E0000009B
S11349A0696E697469616C697A6500007365742065
S11349B06465766963652076617269616E7400006E
S11349C07365742064657669636520693263206168
S11349D06464726573730000726561642064617459
S11349E061000000726561642073657269616C2006
S11349F06E756D6265720000736F66742072657304
S1134A0065742073656E736F7200000067657420AF
S1134A10616464726573730018210000E82000006B
S1134A20FA2000003C200000FA200000DE200000F4
S1134A30FA2000003C200000E8200000E8200000EC
S1134A40DE2000003C200000442000004420000040
S1134A504420000000210000E8200000E8200000BD
S1134A60BC200000A0210000BC200000DE200000CB
S1134A70BC200000A0210000E8200000E820000085
S1134A80DE200000A021000044200000442000009B
S1134A9044200000AA21000098240000E82300001C
S1134AA0E8230000E62300008A2400008A24000092
S1134AB080240000E62300008A24000080240000F3
S1134AC08A240000E62300009024000090240000C3
S1134AD09024000020250000BC2B00009E2B000029
S1134AE0582B0000762A0000582B0000902B000061
S1134AF0582B0000762A00009E2B00009E2B0000FD
S1134B00902B0000762A00006E2A00006E2A000016
S1134B106E2A0000D42D00001C320000DC3000009E
S1134B20DC300000D8300000F4310000F431000023
S1134B30E6310000D8300000F4310000E631000016
S1134B40F4310000D8300000FC310000FC310000DA
S1134B50FC310000003400000000000000000000F0
S1134B600000000000000000000000000000000041
S1134B700000000000000000000000000000000031
S1134B800000000000000000000000000000000021
S1134B900000000000000000000000000000000011
S1134BA00000000000000000000000000000000001
S1134BB00000000000000000232D302B2000686C52
S1134BC04C0065666745464700303132333435362C
S1134BD03738394142434445460030313233343565
S1134BE0363738396162636465660000F8B5C046DB
S1134BF0F8BC08BC9E467047DD000000F8B5C0460E
S10F4C00F8BC08BC9E467047B5000000DC
S1134C0C0400002000000000784B0000984B0000CA
S1134C1C584B0000000000000000000000000000E1
S1134C2C0000000000000000000000000000000074
S1134C3C0000000000000000000000000000000064
S1134C4C0000000000000000000000000000000054
S1134C5C0000000000000000000000000000000044
S1074C6C0000000040
S9030000FC
