S01C00007368743478785F54656D705F48756D69646974792E73726563F4
S1130000382B0020250100002101000021010000FF
S113001000000000000000000000000000000000DC
S113002000000000000000000000000021010000AA
S11300300000000000000000210100002101000078
S11300402101000021010000210100002101000024
S11300502101000021010000210100002101000014
S11300602101000021010000210100002101000004
S113007021010000210100001D12000021010000E7
S113008021010000210100002101000021010000E4
S11300902101000000000000000000002101000018
S11300A021010000210100002101000021010000C4
S11300B00000000010B5064C2378002B07D1054B37
S11300C0002B02D0044800E000BF0123237010BDC0
S11300D0B00900200000000080940000084B10B517
S11300E0002B03D00749084800E000BF0748036815
S11300F0002B00D110BD064B002BFBD09847F9E72D
S113010000000000B40900208094000080940000E6
S11301100000000010B5014B984710BD29030000F2
S1130120FEE70000F8B5234A234B9A4209D0224B3C
S1130130204A03E011681960043304321F498B42DA
S1130140F8D31F4B02E000221A6004331D4A934285
S1130150F9D31D4AFF211D4B8B439360FD39902336
S11301605B001B4AD1501B4AD3780325AB430224BE
S11301702343D370D3780C27BB4308263343D3706F
S1130180154B987B30229043202210439873997B1F
S1130190B943314399739A7BAA4322439A730F4A12
S11301A0516880230B4353600D4B98470D4B984780
S11301B0FEE7C0468094000000000020B009002043
S11301C0B0090020380B002000ED00E00000000022
S11301D000700041005000410048004100400041CF
S11301E0CD4800008512000070B5134B5020195CF7
S11301F0042291431954195C0125A9430124214384
S1130200C9B219541838195C0F26B1430226314378
S1130210C9B2195451215E5C96435E545A5CAA4398
S11302202243D2B25A541A5C42390A4020210A436A
S1130230D2B21A5470BDC04600440041054A136A44
S113024008210B431362044B044A5A80044A5A801F
S11302507047C04600040040000C004015400000F8
S11302601340000010B5044B984704490448054B5B
S11302709847054B984710BD3D020000000C004212
S11302808C0A0020E9030000E9010000044A136A13
S113029080210B431362034A034B5A807047C046C4
S11302A00004004019400000000C004030B50F4B22
S11302B0C222995C0125A94301242143C9B299545E
S11302C0B120195CB33A914303221143C9B21954C2
S11302D0C3215A5CAA432243D2B25A541A5CB43999
S11302E00A4030210A43D2B21A5430BD00440041BE
S11302F010B582B0064B9847002300931033054A8B
S113030005490648064CA047064B984702B010BD65
S11303108D020000CC090020001C00423C0A002091
S11303202D060000AD02000010B5034B9847034BA7
S11303309847034B984710BD7508000065020000FC
S1130340F1020000EFF31083036072B6BFF35F8F16
S11303507047BFF35F8F036883F310887047000012
S113036010B5044B1C68044B984701002000034B54
S1130370984710BDDC0900204D0800006D080000FE
S113038010B584B01438848B01AB1C801400029225
S1130390064A5A8003911900054B9847002802D158
S11303A0200004B010BD0400FAE7C0460080FFFF3F
S11303B0A10F000010B584B01438848B01AB1C80ED
S11303C014000292064A5A8003911900054B98477B
S11303D0002802D1200004B010BD0400FAE7C04692
S11303E00180FFFFA10F000070B504000D00431E43
S11303F09841C0B25E220749074B98472900200064
S1130400064B9847002803D1054BA361054B636154
S113041070BDC046FC8A000025070000F10E0000F4
S1130420B50300008103000010B5014B984710BDCF
S1130430210F00008905890D8023DB001A400A433F
S11304408283100070471430086000207047000059
S113045070B504000D00160000280ED000290AD043
S1130460012034220649074B9847236832002900AB
S11304702000984770BD0020F3E70020F1E7C04654
S1130480188B00002507000070B504000D0016004D
S113049000280ED000290AD001203D220649074B2E
S11304A098476368320029002000984770BD0020F7
S11304B0F3E70020F1E7C046188B00002507000091
S11304C010B5083800230363436A002B00D0984713
S11304D010BD10B5083800230363C36A002B00D095
S11304E0984710BD10B504002C30044B9847236A7C
S11304F0083C002B01D02000984710BDC507000020
S113050070B504000E00150000281DD000291DD070
S1130510002A1DD100203C22FF321049104B98477D
S11305204423E25A0833E35A9A4213D1A6644C2373
S1130530E5520022083BE252433B2363200008308B
S1130540084B9847280070BD0020E4E70020E2E74C
S11305500120E0E71C204042F5E7C0462C8B000058
S113056025070000DF0E000070B504000200083A01
S11305704423D35A4C21525A93420DD00200016CA9
S1130580083A5D1C44201552C95C2000044B98476E
S11305902000044B984770BD034B9847FBE7C046C7
S11305A0D70E0000DF0E0000E70E0000F0B585B0A6
S11305B004000D001600002817D0002917D0002AC7
S11305C017D10020AC2252001249134B984703A8BC
S11305D0124B9847343420000194114B984707007C
S11305E003A8104B984700240BE00020EAE7002002
S11305F0E8E70120E6E70134A4B2691801980A4B40
S113060098472100A74201D9B442F4D3200005B091
S1130610F0BDC0462C8B00002507000045030000F8
S1130620050800005303000079070000F8B5040032
S11306300D0016001F00002826D0002926D0002A0D
S113064026D0002B26D100203A221549154B984775
S1130650200034303A003100134B984700281BD156
S1130660200008302900114B984700280BD1104B6B
S11306706360104B2360104BA360104BE360104B7E
S11306802361104B6361F8BD0020DDE70020DBE748
S11306900020D9E70120D7E70D204042F3E7C04608
S11306A02C8B0000250700002D070000390E0000E8
S11306B0AD0500000105000069050000E504000027
S11306C0C1040000D304000010B50400431E984187
S11306D0C0B261220449054B984720000830044BFE
S11306E09847002010BDC0462C8B00002507000051
S11306F0C50E000070B504000D0000280BD00029C1
S113070007D0012077220549054B98472C6000202B
S113071070BD0020F6E70020F4E7C0462C8B0000F3
S113072025070000002800D100BE704770B5040002
S11307300E001500002812D0002912D0002A12D170
S1130740002028220A490B4B98476B1E2B420CD1E0
S113075063600023A360E3602660002070BD002076
S1130760EFE70020EDE70120EBE70D204042F5E73D
S11307704C8B00002507000070B504000D00002814
S113078016D0002912D0012040220C490C4B984766
S1130790A368E2689A420DD0626813402268D35C71
S11307A02B70A3680133A360002070BD0020EBE729
S11307B00020E9E70A204042F7E7C0464C8B0000DE
S11307C02507000070B504000D00431E9841C0B217
S11307D051220A490A4B98476368E2681340226829
S11307E0D554E368A2689A1A61688A4201D9591AF1
S11307F0A1600133E360002070BDC0464C8B000053
S11308002507000010B50400431E9841C0B26722BA
S11308100349044B9847E068A368C01A10BDC0465A
S11308204C8B0000250700000300064A1268002ACA
S113083004D0044A1068C318136070470249014A7F
S11308401160F6E7E0090020382B002010B5030002
S1130850C8208000584302300321034B984783008B
S11308601B18580010BDC0465D1A00000139FDD8A0
S11308707047000010B5064B5A685A60054B9847FC
S1130880054B9847054B9847FF20054B984710BDEB
S113089000400041C508000031120000751200003C
S11308A0A5080000C3070AD5054B802252009A60B0
S11308B0832252025A60024B5B78DB09FBD17047FA
S11308C0000C0040064B1A7AD2B21A725A7AD2B28B
S11308D05A729A7AD2B29A72DA7AD2B2DA727047C9
S11308E000040040024B9C466044800AC0B270473A
S11308F000F8FFBD10B58469237EDB0702D5A37D14
S1130900DB070FD4237E9B0702D5A37D9B070ED460
S1130910237E5B0715D5628B37231A420CD008332C
S1130920638310BD0123237503689847F9E7022305
S1130930237583689847F4E74368218DC9B29847C3
S1130940EFE7237EDB09ECD080232376C368984746
S1130950638B9BB26383E4E7034B984200D07047F8
S1130960024B1960FBE7C046001C0042E40900206A
S113097010B5024B98470930C0B210BDE50800001D
S113098010B50B4B984702000020002806D0094AF6
S113099009490020094B9847002010BD83001B180B
S11309A09900074BCB5C9A42F7D00130C0B2ECE718
S11309B0E50800005E020000C08B0000250700006F
S11309C0708B000070B50400384B9847E369DB076F
S11309D01DD483001B189A00354B9B185A681C239E
S11309E01A40E3699B07FCD123689B0709D5236858
S11309F002218B432360E3699B07FCD1E3699B07D6
S1130A00FCD4012313432360E3699B07FCD1E3690E
S1130A10DB07FCD483001B189A00254B9B185B68EA
S1130A202360E3699B07FCD183001B189A00204BC9
S1130A309B189B686360E3695B07FCD183001B1808
S1130A409A001B4B9B185B689A040BD4C022D201FA
S1130A50134207D183001B189A00154B9B189B89DE
S1130A60A38115E083001B189A00114989188A890B
S1130A70A389D204D20C5B0B5B031343A3818B7B4E
S1130A8007221A40A3895203DB04DB0C1343A3811E
S1130A90074A83001D18A9000D005118C97BA173D2
S1130AA05219127C3023E254002070BD81090000E9
S1130AB0708B000010B50D4B98470023002B08D015
S1130AC0F02292000A4900200A4B98470120404234
S1130AD010BD5A00D218D100074A5218127D904214
S1130AE002D00133DBB2E9E758B2F1E7E5080000D0
S1130AF0C08B000025070000708B000070B5050056
S1130B000C0008002D4B9847C0B2E369DB071DD4E5
S1130B1043001B18DA002A4B9B189A691C231A40BD
S1130B20E3699B07FCD123689B0709D5236802214D
S1130B308B432360E3699B07FCD1E3699B07FCD4E7
S1130B40012313432360E3699B07FCD1E369DB07BB
S1130B50FCD443001B18DA00194B9B189B692360D3
S1130B60E3699B07FCD143001B18DA00144B9B1864
S1130B70DB696360E3695B07FCD442001218D100AF
S1130B800F4B5B181A6AE260DA7E03231A40AA81CB
S1130B90023B93429B415B42626A0A490A409B03BF
S1130BA013436362E3695B07FCD443001818C20073
S1130BB0034B9B18DB8CEB81002070BDB50A000051
S1130BC0708B0000FFBFFFFF70B505000469236848
S1130BD0DB0E01261E40431E9841C0B28E4A8F4947
S1130BE08F4B98476B68012B4DD063688D4A134037
S1130BF06360E3695B07FCD42B885A054ED56A8889
S1130C00D20704D56A888021C9000A436A805B0040
S1130C10854A1A40E3695B07FCD4636A8021C901F1
S1130C200B4013438022120213436362E3695B07A0
S1130C30FCD42E697D4A337EDBB21800511E002A93
S1130C4002D00A009B07F6D02368DB0E01221A406B
S1130C50E3695B07FCD4638B9BB2C10700D48FE0CC
S1130C609A072FD5012222766A88802149010A43F6
S1130C706A806A886E490A406A80DB0700D4C6E04D
S1130C8005204042A2E0002EAFD062688023DB0240
S1130C9013436360E3695B07FCD4ADE75B00FF22A9
S1130CA013406A8801210A401A43E3695B07FCD4B4
S1130CB0636A8021C9010B4013436362E3695B07E4
S1130CC0FCD4B6E75B071BD46B885B0534D52A8854
S1130CD01212520006231A40E3695B07FCD4636ACC
S1130CE08021C9010B401343F12213436362E3697A
S1130CF05B07FCD46B884F4A13406B80002065E08F
S1130D006B68002B04DD6B888022520113436B80D7
S1130D106B881BB2002B06DB6B88454A13406B8043
S1130D200220404252E06268C0239B021343636086
S1130D30E3695B07FCD4EFE76868002811D16B888E
S1130D401BB2002B04DB6B88394A13406B803DE0F7
S1130D506268C0239B0213436360E3695B07FCD4AE
S1130D60F1E7AB681A782823E254E3695B07FCD403
S1130D70AB680133AB606B68013B6B60002025E01E
S1130D80810747D5696800293CD05B073AD401390B
S1130D906960002901D1002A1BD0012917D06B6892
S1130DA0002B07D16B881BB2002B1BDB6B88204AFE
S1130DB013406B80AA68531CAB60E3695B07FCD4E7
S1130DC02823E35C137002232376002070BD002ADD
S1130DD0E5D062688023DB0213436360E3695B0749
S1130DE0FCD4DCE76368124A13406360E3695B0781
S1130DF0FCD46268C0239B0213436360E3695B070E
S1130E00FCD4D3E70223237602204042DEE7042009
S1130E104042DBE70020D9E7BC050000C08B00009E
S1130E2025070000FFFFFBFFFE070000FFFF000097
S1130E30FFFEFFFFFFFBFFFF70B506000C00431E23
S1130E409841C0B2C4221949194B98472000194B44
S1130E509847051E01D0280070BDB4613100200000
S1130E60154B98472000154B984743B2002B0ADBDB
S1130E701F21014001228A408021114C6250BFF39E
S1130E804F8FBFF36F8F002B07DB1F21014001221F
S1130E908A40C02149000A4C6250002BDBDB1F232F
S1130EA018401E3B8340064A1360D4E7C08B000001
S1130EB025070000C5090000590900007109000058
S1130EC000E100E08269136802210B431360D369D7
S1130ED09B07FCD17047836989B219857047836980
S1130EE001229A757047836902229A75704700003F
S1130EF070B504000D00431E9841C0B2044A054970
S1130F00054B9847256129002000044B984770BD84
S1130F102F050000C08B000025070000FD0A00001B
S1130F2070B50400194D431E9841C0B2184A2900F7
S1130F30184EB04724692000431E9841C0B2164A97
S1130F402900B0472368022213432360E3699B0707
S1130F50FCD104201149E3695B07FCD4628B1209BC
S1130F6003231340012B0BD001390029F3DC013892
S1130F70002807D010236383E3695B07FCD4E9E707
S1130F80002070BD06204042FBE7C046C08B000035
S1130F904C050000250700001C060000FFFF0000B0
S1130FA0F8B505000E000469431E9841C0B2934A87
S1130FB09349944FB8472869431E9841C0B2BD2253
S1130FC0D2008F49B8473000431E9841C0B28E4AC0
S1130FD08B49B8476B88DB0500D50BE17288802309
S1130FE05B009C461A4372802A00310089C989C279
S1130FF06268634613436360E3695B07FCD42800BB
S1131000824B9847002800D19DE06B88804A1340AA
S11310106B80F8BD05204042A6E073881BB2002B0C
S113102004DB6B887A4A13406B80F2E76268C02362
S11310309B0213436360E3695B07FCD4F1E7530746
S11310401BD46B885B0534D52A8812125200062300
S11310501A40E3695B07FCD4636A8021C9010B4031
S11310601343F12213436362E3695B07FCD46B8887
S1131070684A13406B80002065E06B68002B04DD38
S11310806B888022520113436B806B881BB2002B48
S113109006DB6B885E4A13406B800220404252E0BC
S11310A06268C0239B0213436360E3695B07FCD45B
S11310B0EFE76868002811D16B881BB2002B04DBB2
S11310C06B88534A13406B803DE06268C0239B02E7
S11310D013436360E3695B07FCD4F1E7AB681A78F8
S11310E02823E254E3695B07FCD4AB680133AB60AB
S11310F06B68013B6B60002025E0BB0778D56B680B
S1131100002B6DD052076BD4013B6B60002B01D1D7
S113111000294CD0012B48D06B68002B07D16B8879
S11311201BB2002B4CDB6B88394A13406B80AA68D6
S1131130531CAB60E3695B07FCD42823E35C1370A6
S11311400223237600206B88DB0500D461E728693D
S1131150314A037EDBB21F00511E002A00D159E739
S11311600A009B07F5D00020002800D055E723682B
S1131170DB0E01211940E3695B07FCD4628B92B258
S1131180FB07BAD5930700D459E7012323766B886C
S1131190802149010B436B806B881D490B406B8098
S11311A0D30722D505204042CDE70029B4D0626898
S11311B08023DB0213436360E3695B07FCD4ABE782
S11311C06368134A13406360E3695B07FCD4626895
S11311D0C0239B0213436360E3695B07FCD4A2E76B
S11311E00223237602204042ADE704204042AAE7CE
S11311F00020A8E7062040420BE7C046E7050000B0
S1131200C08B000025070000E9050000C90B0000A1
S1131210FFFEFFFFFFFBFFFFFFFF000010B5024BC7
S11312201868024B984710BDE4090020F508000037
S11312300E4A116A090C136A9B0F9B0709040C4898
S113124001400B4302210B43136293690B439361E7
S1131250137F1D310B401377044BDB681B07FBD551
S1131260024A136A80210B4313627047000800404E
S11312700000FF0F024A936902218B439361704778
S113128000080040F0B585B03F4B984700203F4B25
S113129098473F4C20003F4B984721003E483F4D24
S11312A0A84721000A313E48A847210023313D4880
S11312B0A8473D4EE06AB04702000B003B48A847F0
S11312C0A06AB04702000B003948A847206BB0471A
S11312D002000B003748A847A06BB04702000B0080
S11312E03548A847E46B354F3549201CB84703906F
S11312F03449201CB847344FB847C3B2642058431C
S1131300324B9847011C201C314B9847B847C4B254
S11313100398B04702000B0000942E48A84712E03F
S11313202D4B1B19197B2D481C4B98470134052C58
S1131330F6DD2B4C20002B4B98472B4B1860216873
S11313402A48164B98472A482A4B9847224C210092
S11313500020294B9847244B1860134E2068B0474F
S113136002000B0025480D4DA8476068B0470200F5
S11313700B002348A847A068B04702000B0021488F
S1131380A8470024D3E7C0461501000091180000C7
S1131390D00A002019180000DC8B0000FD190000A1
S11313A0F08B0000048C000045440000208C0000F9
S11313B03C8C0000588C0000748C0000FD20000060
S11313C000007A440000C842291C0000952A00004D
S11313D01D270000908C0000B00A0020E08C000063
S11313E0C40A00209D190000C80A0020F48C0000E3
S11313F0B80B0000F11900006D190000B08C00005A
S1131400C08C0000D08C000070B582B006000C00C7
S1131410074D01A92800074B98472800064B984719
S1131420A2B231000198054B984702B070BDC04686
S11314303C0A0020F5060000C90600005104000023
S1131440F0B583B0050016001F000B4C01A9200065
S11314500A4B984720000A4B984729B28022120170
S11314602000084B98473A0031000198064B9847F2
S1131470002003B0F0BDC0468C0A002047040000E1
S113148029040000350400008904000070B584B00C
S113149005006B46DE1DD9710A4C03A920000A4BD6
S11314A098472000094B984729B280221201200056
S11314B0074B9847012231000398064B98470020B8
S11314C004B070BD8C0A0020470400002904000009
S11314D0350400005104000010B5C4689BB2007EBE
S11314E0A047002800D110BD0120FCE710B5846896
S11314F09BB2C9B2007EA047002800D110BD0120D4
S1131500FCE7000010B543690148984710BDC04688
S1131510188D000010B5041E31D04369002B30D063
S11315200269002A11D00268002A12D041680029F9
S113153013D08168002914D0C168002915D09047C0
S1131540002816D10123A3761AE00F4898470320F8
S113155016E00E489847032012E00D4898470320F0
S11315600EE00C48984703200AE00B4898470320F4
S113157006E00A4920000A4B9847012000E00220B7
S113158010BD0320FCE7C046308D00004C8D0000E8
S1131590688D0000888D0000A48D0000C08D0000BF
S11315A005150000002808D0837E012B01D00320FC
S11315B07047C37E03760020FAE70220F8E700288C
S11315C01FD0837E012B01D003207047417601296F
S11315D00BD0002905D002290BD003290DD00020FF
S11315E0F3E74423C3760020EFE74523C3760020C6
S11315F0EBE74423C3760020E7E74423C3760020C7
S1131600E3E70220E1E70000F0B5DE4657464E4628
S11316104546E0B583B004001600002800D177E009
S1131620837E012B08D00325280003B03CBC9046E0
S11316309946A246AB46F0BD364B595C00230022C6
S1131640354DA847051E57D10A202369984706231C
S11316506A4600212000314DA847051E51D16B4632
S1131660187800025B7818432D4B9B4698472D4B06
S11316709A4698472C4B994600222C4BC8472C4B32
S1131680984600222B4BC0472B4F00222B4BB847C8
S11316902B4CA04730602B492B4B98472B492C4BA4
S11316A098478421C9052B4B984770606B46D878BE
S11316B000021B791843D847D04700221B4BC84768
S11316C00022254BC0470022244BB847A047041CE6
S11316D02349244B9847002800D0214C0021201C8A
S11316E0214B9847002811D1B46030000C300622F9
S11316F069461E4B984797E71D4920001D4B9847A4
S113170092E71D4920001B4B98478DE70024EBE727
S1131710022589E70C8D0000D9140000ED140000A7
S1131720952A00004544000055310000E0FFEF40D9
S1131730BD37000000E06540BD3C0000008046402D
S1131740E944000000001041DD2400000000A04036
S1131750FD200000D91D000000405F40000018403B
S11317600000C842C11B0000991B0000154900007D
S1131770088E000005150000248E000070B582B0AC
S113178004000E00002839D0837E012B03D00325EA
S1131790280002B070BD0023019300228921184D56
S11317A0A847051E12D10A2023699847062301AAD7
S11317B000212000134DA847051E0CD101ABDA7897
S11317C09A701A79DA700022032310E00E4920007F
S11317D00E4B9847DCE70E4920000C4B9847D7E79F
S11317E001A9895C6846C154013BDBB20132032A7A
S11317F0F6DD009B074A13603360C9E70225C7E79B
S1131800D9140000ED1400003C8E00000515000002
S11318104C8E0000E809002070B5041E20D0402240
S11318200021104B98470A220F4920000F4DA8476A
S11318302000233008220E49A84720000A3019222C
S11318400C49A8470C4BE3620C4BA3620C4B23637B
S11318500C4BA3630C4B63630C4BE363002070BD20
S11318600220FCE799490000748E0000914A0000B0
S11318707C8E0000808E0000666666406666E63FE9
S1131880CDCCCC3D0000FA42000020C200009644BA
S113189030B583B00500264C1C2200212000254BC6
S11318A09847254B2360254B6360254BE360254B0C
S11318B0A360254B2361254B63612000244B98478B
S11318C06B46D87107331B78002B17D129001848B1
S11318D0204B98476B46D87107331B78002B16D1E1
S11318E013481D4B98476B46D87107331B78002B60
S11318F015D10A20144B9847002006E017490C48DC
S1131900174B98476B46D879C0B203B030BD154920
S11319100748134B98476B46D879C0B2F5E712498C
S113192003480F4B98476B46D879C0B2EDE7C046E1
S1131930EC09002099490000C9190000CD190000E4
S1131940E1190000D1190000F1190000FD1900008F
S113195015150000BF150000A51500008C8E0000B1
S113196005150000988E0000AC8E000010B50A002A
S113197001000648064B9847002800D110BD0549D0
S11319800248054B98470120F8E7C046EC090020BF
S113199009160000C48E00000515000010B50100F2
S11319A00548064B9847002800D110BD0449024859
S11319B0044B98470120F8E7EC0900207D1700004C
S11319C0E48E0000051500000020704700207047D9
S11319D010B5024CA047002010BDC04641140000C1
S11319E010B5024CA047002010BDC0468D14000065
S11319F010B5014B984710BD610300000FB470B5DA
S1131A00C2B046AC40CC80256D002A00002102A85B
S1131A100D4B9847009423003200290002A80B4C78
S1131A20A04702A80A4B9847C0B26B46D871D9792F
S1131A30C9B202A8074B98470A20074B984742B0FF
S1131A4070BC08BC04B01847994900007D4B0000E5
S1131A502D4A000009140000F11900000022430877
S1131A608B4274D303098B425FD3030A8B4244D362
S1131A70030B8B4228D3030C8B420DD3FF220902A4
S1131A8012BA030C8B4202D31212090265D0030B63
S1131A908B4219D300E0090AC30B8B4201D3CB0359
S1131AA0C01A5241830B8B4201D38B03C01A52419B
S1131AB0430B8B4201D34B03C01A5241030B8B429D
S1131AC001D30B03C01A5241C30A8B4201D3CB0288
S1131AD0C01A5241830A8B4201D38B02C01A52416D
S1131AE0430A8B4201D34B02C01A5241030A8B4270
S1131AF001D30B02C01A5241CDD2C3098B4201D388
S1131B00CB01C01A524183098B4201D38B01C01A05
S1131B10524143098B4201D34B01C01A524103097C
S1131B208B4201D30B01C01A5241C3088B4201D32B
S1131B30CB00C01A524183088B4201D38B00C01AD8
S1131B40524143088B4201D34B00C01A5241411AFF
S1131B5000D20146524110467047FFE701B500200C
S1131B6000F006F802BDC0460029F7D076E77047BA
S1131B707047C0468446081C6146FFE71FB500F065
S1131B806BFC002801D40021C8421FBD10B500F031
S1131B90FDFB4042013010BD10B500F05DFC002893
S1131BA001DB002010BD012010BDC04610B500F0BF
S1131BB053FC002801DD002010BD012010BDC046EB
S1131BC010B500F009FC002801DC002010BD012044
S1131BD010BDC04610B500F0FFFB002801DA00205C
S1131BE010BD012010BDC046002B11D1002A0FD119
S1131BF0002900D1002802D00021C943081C07B4E1
S1131C00024802A14018029003BDC04665FFFFFFD1
S1131C1003B4684601B5029800F01EF8019B9E4685
S1131C2002B00CBC7047C0469E2110B5C905041C07
S1131C30FFF7D0FF002803D1201C00F00BFF10BDDC
S1131C409E21201CC90500F069FD00F003FF8023DC
S1131C501B069C466044F2E7F0B557464E4645469F
S1131C60DE46E0B5040083B00D00924699468B42EF
S1131C702FD82CD04946504602F01CFD29000600FE
S1131C80200002F017FD331A9846203B9B4600D5EE
S1131C9074E053465A4693401F00534642469340CD
S1131CA01E00AF4229D826D05B46A41BBD41002BA1
S1131CB000DA79E0002200230092019301235A46BE
S1131CC093400193012342469340009319E08242DA
S1131CD0D0D900220023009201930C9B002B01D049
S1131CE01C605D600098019903B03CBC9046994625
S1131CF0A246AB46F0BDA342D6D9002200230092EF
S1131D0001934346002BE8D0FB0772081A4346466A
S1131D107B080EE0AB4201D1A2420CD8A41A9D412B
S1131D20012024196D410021013E24184D41002E4B
S1131D3006D0AB42EED9013E24196D41002EF8D1F4
S1131D405B460098019900196941002B22DB2B00A6
S1131D505A46D3402A004446E2401C005B46150024
S1131D60002B2CDB26009E40330026004746BE4055
S1131D703200801A994100900191AEE74246202337
S1131D809B1A5246DA40414613004A468A401700DD
S1131D901F4382E7424620239B1A2A0046469A4064
S1131DA02300F3401343D5E74246202300219B1A26
S1131DB00022009101920122DA40019282E7424618
S1131DC0202326009B1ADE402F00B4469740664627
S1131DD03B003343C9E7C046F0B5C6464E0247024E
S1131DE0760A7B0A4400C50FF7004800984600B500
S1131DF0240E2A00DB00000EC90FBC468D4267D0BA
S1131E00221A002A00DCA5E000283AD1002F00D1D4
S1131E1093E0511E002900D0BCE00124DB1B5A01D1
S1131E2046D59B019E09300002F026FC0538864009
S1131E30844200DD9DE0041B320020200134E24096
S1131E40041BA64033005E1EB341002413435A070B
S1131E5004D00F221A40042A00D004335A0129D591
S1131E600134FF2C00D181E02A009B015B0AE4B21B
S1131E705B02E405580AD2072043104304BC904691
S1131E80F0BDFF2CE3D080213800C9040843844608
S1131E901B2A00DD82E020206146D140821A604680
S1131EA090400200501E82410A439B1A5A01B8D442
S1131EB05A07CED1DE082A00FF2C3AD1002E00D1D9
S1131EC0AEE08023DB0333435B025B0AFF24CFE7EE
S1131ED0211A002952DD002831D0FF2CB7D08020F0
S1131EE03E00C0040643B4461B2900DDAAE02026B8
S1131EF06046C840711A66468E4031004E1EB1419C
S1131F0001435B185901D3D50134FF2C00D187E07C
S1131F10012278491A405B080B40134397E7002CD1
S1131F2000D0A7E0002B00D0B6E03B1E62D1002613
S1131F30002273025B0AE4B29AE7140087E7002FD9
S1131F404DD0481E002857D1634401245A01AFD50F
S1131F500224DDE7002A24D1621CD2B2012ADEDD8C
S1131F60DE1B720135D5FE1A0D005CE72A00002342
S1131F707EE73300604A241A134068E7002963D1DE
S1131F80611CC8B201284EDDFF2949D063445B08B7
S1131F900C005CE7FF2A41D00A0079E701229B1A72
S1131FA084E7002C1DD0FF2822D08024E404524270
S1131FB023431B2A00DD8AE01C002025D440AA1AF2
S1131FC093405A1E9341234362460400D31A0D00E2
S1131FD025E7002E00D026E700220024A9E70C0004
S1131FE035E7002B4DD0D243002AEDD0FF28E0D1B5
S1131FF06346FF240D002AE7FF290FD0010073E791
S1132000002B61D0FF24002F00D120E7802241461D
S1132010D203114202D0164200D13B00FF2416E73E
S1132020FF24002324E7002CEAD1002B58D0002FF2
S113203000D10CE763445A0100D439E72E4A0C005E
S1132040134004E701215CE7002C1ED1002B40D093
S1132050C94300290BD0FF2836D01B2947DC1C00BC
S11320602026CC40711A8B40591E8B412343634474
S1132070040047E7002B18D13B1E2DD00D00FF2490
S1132080E5E63B0004000D00E1E6FF281CD08024B7
S1132090E40449422343E0E7002F00D1D7E6DE1BE6
S11320A072011FD5FB1A0D00D1E6FF24002F00D1C9
S11320B0CDE680224046D2031042AFD01642ADD1C5
S11320C03B000D00FF24C2E66346FF24BFE6012364
S11320D07AE73B000400BAE680260022F603F0E625
S11320E03B00B4E6331E00D0E2E6002221E70123E0
S11320F0BDE7C046FFFFFF7DFFFFFFFBF0B557467E
S11321004E46DE464546E0B544024300C60F83B062
S11321100F1C640A1B0EB24653D0FF2B27D080221B
S1132120E400D20414437F22524290469844002390
S113213099469B467D027800FB0F6D0A000E0093C2
S113214024D0FF2846D080230021ED00DB041D436A
S11321507F384746381A4F460F43BF00B94633000D
S1132160009A874F53404A46BA5801939746002C29
S11321704ED108239946F7339846FD3B9B467D0292
S11321807800FB0F6D0A000E0093DAD1002D26D1E2
S1132190002001213300009A7A4F53404246101A1E
S11321A04A460A439200BA581D009746009B2C00E9
S11321B09A468B465B46022B31D15346FF210024BD
S11321C038E0002C17D104239946002398460133A4
S11321D09B46AFE7FF20002D0BD10221DAE7280050
S11321E002F04AFA431F9D4076235B42181A0021ED
S11321F0AFE70321ADE7200002F03EFA431F9C4005
S113220076235B421B1A9846002399469B4691E726
S11322100C239946F3339846FC3B9B468AE7032BF1
S113222000D1A5E05546012B00D081E00123002117
S113223000242B406402C905600ADB0708431843E5
S113224003B03CBC90469946A246AB46F0BD802400
S11322500023E403FF21EDE7FF210024EAE7012343
S1132260591A1B2966DD019A134000210024E1E775
S11322708023DB031C4238D01D4251D01C4364022E
S1132280640A3300FF21D5E763016C01A3423BD20A
S11322901B260021013801251F0049005B00002F87
S11322A001DB9C4201D81B1B2943013E002EF3D1C4
S11322B01C00631E9C410C4301007F310029CEDDCC
S11322C0630704D00F232340042B00D004342301DC
S11322D003D501002C4B80311C40FE290DDD012368
S11322E0019AFF2113400024A4E78023DB031C434D
S11322F06402640A3300FF219CE70123019AA401CC
S1132300640AC9B2134095E71B1B1A260121C2E7D0
S1132310009B8B469A4600244CE76302E5D50025D2
S11323208024E4032C436402640A009BFF2181E7B8
S11323300195C1E723002020CB40411A8C40611E47
S11323408C411C43630704D00F232340042B00D08B
S11323500434630105D50123019A012113400024AB
S113236068E70123019AA401640A1340002161E78C
S11323708023DB031C436402640A5346FF2159E7AC
S1132380288F0000688F0000FFFFFFF770B5420040
S113239045024E024C00C30F6D0A120E760A240E3B
S11323A0C90F0120FF2A06D0FF2C03D0A24201D17D
S11323B0B54206D070BD002DFCD1FF2CFAD1002E01
S11323C0F8D18B4206D00120002AF3D12800451E03
S11323D0A841EFE70020EDE7F0B5420045024C02CA
S11323E0C30F48006D0A120E640A000EC90FFF2ABB
S11323F01ED0FF2821D0002A0AD16E426E41F6B2C7
S113240000280FD1002C0DD10020002D09D005E0AB
S1132410002801D1002C01D08B4211D00121584257
S11324200843F0BD002EF7D0012001390843F8E736
S1132430002DDED002204042F3E7002CDBD0F9E788
S11324408242EBDC04DBA542E8D80020A542E8D2B6
S11324500121581E0843E4E7F0B542004D024C0048
S11324604602760A120EC30F6D0A240EC90FFF2A04
S113247016D0FF2C18D0002A0AD170427041C0B285
S1132480002C15D0002805D0012001390843F0BDE7
S1132490002C13D0994214D001205B421843F6E774
S11324A00220002EF3D1E4E70220002DEFD1E2E771
S11324B0002DE7D10020002EE9D0EDE7002DE9D171
S11324C0EAE7A24206DCDFDBAE4203D80020AE42DC
S11324D0DAD3DCE7012049420843D8E7F8B5574688
S11324E04E464546DE46E0B54702460088467F0A2A
S11324F0360EC40F002E47D0FF2E24D0FB008027B9
S1132500FF041F43002399469A467F3E43465D02DB
S11325105800DB0F6D0A000E984643D0FF283BD0CD
S1132520EB0080250022ED041D437F383618731C10
S113253041469B464B46614013430F2B64D8754874
S11325409B00C3589F46002F42D108239946063B5F
S1132550FF269A46DAE74146022A28D0032A00D108
S1132560CEE0012A00D0ACE0114000200022CCB221
S11325704002D205400AE407104320433CBC904685
S11325809946A246AB46F8BD002F15D104239946BF
S1132590033B00269A46B9E7FF200222002DC5D04E
S11325A00322C3E7002D19D100200122BEE7012434
S11325B0FF220C400020DBE7380002F05DF87626AD
S11325C0431F9F4000237642361A99469A469DE758
S11325D00C239946093BFF269A4697E7280002F008
S11325E04BF8431F9D4076235B42181A00229DE757
S11325F080200024C003FF22BAE73D005246ABE727
S11326003D0021005246A7E73B0C9C462A04120CCD
S11326102B0C1400604665463F043F0C7C43424348
S11326205D437B43270C9B18FF18BA4203D98023D0
S11326305B029C46654424043A04240C1219930159
S11326405C1EA3413F0C920E7D191A43AD01154344
S11326502B0104D501235E466A081D401543320050
S11326607F32002A25DD6B0704D00F232B40042B77
S113267000D004352B0103D53200274B80321D4096
S1132680FE2A94DC0124A801400AD2B20C406FE770
S11326908020C003074207D0054205D128434002E9
S11326A0400A4446FF2263E738434002400AFF22BF
S11326B05EE70124A31A1B2B05DD0C400022002039
S11326C056E75E46CBE72A002020DA40C31A9D4035
S11326D02B005D1EAB4113435A0704D00F221A404E
S11326E0042A00D004335A0104D5012401220C40E9
S11326F000203DE701249B01580A0C40002237E7E3
S113270080200124C00328434002400A0C40FF22D9
S11327102EE7C046A88F0000FFFFFFF7F0B54F4635
S1132720D64646464400C0B5C20F47024802400A96
S1132730844666467B0A4800C90F9A46240E150053
S1132740DB00000E8946F600FF2800D18FE001214E
S11327504F464F403900914266D0221A002A00DCCD
S11327609DE000283DD1002E00D18BE0511E0029B0
S113277000D0B5E001249B1B5A0144D59B019F095D
S1132780380001F079FF05388740844200DD96E087
S1132790041B3A0020200134E240041BA7403B0004
S11327A05F1EBB41002413435A0704D00F221A4072
S11327B0042A00D004335A0127D50134FF2C00D158
S11327C079E001229B015B0AE4B22A405B02E40542
S11327D0580AD207204310431CBC90469946A2468F
S11327E0F0BDFF2CE0D08021C9040E431B2A7BDC02
S11327F031002020D140821A9640721E96410E4329
S11328009B1B5A01BAD45A07D0D10122DF082A40AF
S1132810FF2C33D1002F00D1A8E08023DB033B43FE
S11328205B025B0AFF24D1E7211A00294CDD002852
S11328302AD0FF2CB8D08020C00406431B2900DD19
S1132840AFE030002027C840791A8E40711E8E41B7
S113285006439B195901D6D50134FF2C00D185E0DC
S113286001227A491A405B080B4013439CE7002E6F
S113287000D070E76BE73B1EC5D100227B025B0AE8
S1132880E4B2A3E714008FE7002E4DD0481E0028C1
S113289057D19B1901245A01B5D50224E0E7002A37
S11328A025D1621CD2B2012A72DD9F1B7A0135D573
S11328B0F71A0D0064E7012200232A4086E73B0053
S11328C0634A241A13406FE700296CD1611CC8B213
S11328D001284EDDFF2949D09B195B080C0063E7F2
S11328E0FF2A41D00A0081E701269B1B89E7002CBF
S11328F01CD0FF2821D08024E404524223431B2A05
S113290000DD96E01C002025D440AA1A93405A1EEC
S113291093412343F31A04000D002DE7002F00D048
S11329202EE700220024A9E70C003DE7002B58D035
S1132930D243002AEED0FF28E1D13300FF240D005A
S113294032E7FF2910D0010078E7002B6ED0FF2476
S1132950002E00D128E780225146D203114203D031
S11329606146114200D13300FF241DE7FF240023F8
S11329702CE7002CE9D1002B63D0002E00D113E703
S11329809B195A0100D43EE7314A0C0013400BE76F
S1132990002C1ED1002B2FD1002E4FD033000D0060
S11329A002E7012655E7002C1FD1002B43D0C94371
S11329B000290BD0FF2839D01B2944DC1C00202718
S11329C0CC40791A8B40591E8B4123439B19040038
S11329D040E7002B1AD1002E24D180270022FF03C8
S11329E01BE7330004000D00DEE6FF281ED0802420
S11329F0E40449422343DFE7002E00D1D4E69F1BC1
S1132A007A0100D437E7F31A0D00CDE6FF24002E37
S1132A1000D1C9E680225046D2031042A4D06046B9
S1132A201042A1D133000D00FF24BDE63300FF2482
S1132A30BAE601236EE733000400B5E6002700225E
S1132A401CE73300B0E60123C0E7C046FFFFFF7D6B
S1132A50FFFFFFFB41024300C20F490A1B0E002087
S1132A607E2B0DDD9D2B0CDC802000040143952B77
S1132A700ADC9620C31AD9404842002A00D1080033
S1132A807047034BD018FBE7963B9940F4E7C046E8
S1132A90FFFFFF7F70B5002830D0C317C4185C4017
S1132AA0C50F200001F0E8FD9E231B1A962B0DDCB8
S1132AB09622D21A94402A006402640ADBB26402A9
S1132AC0DB05600AD2071843104370BD992B19DC4B
S1132AD09922D21A002A29DD94402200144C144071
S1132AE0510704D00F210A40042A00D004346201A3
S1132AF013D4A401640ADBB22A00E0E70022002315
S1132B000024DCE705222100121AD140B922D21A8E
S1132B109440621E94410C43DAE7054B2A001C40A2
S1132B209F23A4011B1A640ADBB2C8E72200D5E77D
S1132B30FFFFFFFBF8B54546DE4657464E460C03FD
S1132B40E0B54E00C90F88460D00610A440F0C43DE
S1132B50C70019035800DB0F9B464B0A510F0B4368
S1132B60760D400D1900D200D84500D1AEE0351ADB
S1132B70002D00DCF6E000280FD1134300D1DBE088
S1132B806B1E002B00D037E1BA1A9742BF41641A7A
S1132B907F42E41B0126170024E0C64B9E424DD021
S1132BA080231B041943382D00DD07E11F2D00DDB0
S1132BB038E12020431B9A460B0050468340994637
S1132BC013004846EB401843030050468240501E11
S1132BD08241E9401A43BA1A611A9742A441170084
S1132BE064420C1B230262D56402650A002D00D1E5
S1132BF0DFE0280001F040FD0300083B1F2B00DD4F
S1132C00D2E020223C00D21A9D40D4409F4025436C
S1132C109E4200DDC4E09E1B731C1F2B00DDF1E00F
S1132C20202238002900D21AD840914097402C0025
S1132C300143781E8741DC4000260F437B0709D0FF
S1132C400F233B40042B05D03B1DBB42BF417F42B9
S1132C50E4191F0023022CD5964B01369E4200D165
S1132C609AE04546944BFF081C40600776056402D1
S1132C700743240B760D00212403230B0C0D8F4AEC
S1132C8024051C431440330523435B00ED075B0814
S1132C902B43380019003CBC90469946A246AB46EB
S1132CA0F8BD6446044300D111E2040067467B0783
S1132CB0C6D145466007FF080743E4087D4B9E42A2
S1132CC030D024037605240B760DD4E7331A9A46C4
S1132CD0002B78DD002831D076488642AED08020A3
S1132CE0000401435346382B00DCE9E00A43511E3B
S1132CF08A410021D219BA42BF4109197C42170006
S1132D000C192302D3D56B4B01369E4200D13AE114
S1132D100120694B1C407B0807401F43E007074321
S1132D2064088BE723003B4300D1CBE180221203EC
S1132D3014432403240B9EE72E007FE7080010436E
S1132D4000D1B4E0581E002800D0DEE0BA18BA4220
S1132D509B4164185B42E418170001262302A6D5A0
S1132D600226D5E7002D6ED1701C4005400D0128C8
S1132D7000DCF9E0B81A844687428041E51A4042F3
S1132D802D1A280200D489E0D71BBA4292411C1B99
S1132D905242A51AD84629E74546002400276AE787
S1132DA0454CF61A2C4049E73D0028388540002759
S1132DB02EE7380001F060FC20301DE70A43511E65
S1132DC08A41002107E7002B00D0F3E0701C430583
S1132DD05B0D012B00DCADE0364B984200D1D1E015
S1132DE0BA18BA42BF4164187F42E419E70752088F
S1132DF017436408060021E72E48854200D193E07A
S1132E001D00D0E629001F3EF140202B00D18DE0AB
S1132E104022D31A9D402F437D1EAF4100240F430F
S1132E20002644E72B000800203BD8400300202D57
S1132E3000D17DE04020451BA9400A43511E8A4130
S1132E4000211A43C7E6002E50D01A4EB04257D084
S1132E5080266B429946360434434B46382B00DDBA
S1132E60D6E01F2B00DD35E12026F51A2600AE4002
S1132E70B2463E00DE40AC46350056462E4365461B
S1132E80AF407D1EAF41DC403743D71BBA4292416D
S1132E900C1B5242A41A0600D846A3E664466746B1
S1132EA02C4300D0A2E600250026002706E71E00DA
S1132EB0C4E6C046FF070000FFFF7FFFFFFF0F804F
S1132EC01F2B63DC2020C31A080098409C468346CD
S1132ED053461000D84003005846184363469A40AE
S1132EE0531E9A4153460243D94003E726003E430A
S1132EF006D0EB439946002BC7D0944EB042ACD1D8
S1132F000C0017000600D84698E6904B9A450BD063
S1132F108246E7E6002800D09EE01800104300D166
S1132F20E9E01C001700D846884E87E6002572E7C2
S1132F30002182E723003B43002E00D0ABE0002BAE
S1132F4000D1E7E00B00134300D177E6BA18BA4288
S1132F50BF4164187F42E419230200D4F2E07C4BA1
S1132F6017001C40060069E620003843002ED1D12A
S1132F7000285BD11C00144300D1A8E01C001700FA
S1132F80D8465BE606000024002797E650460B006F
S1132F902038C34099465346202B00D195E0402366
S1132FA050461B1A99400A43511E8A414B46002140
S1132FB01A439FE6002E30D126003E4367D0DB4300
S1132FC09A46002B1CD0614EB04260D05346382B39
S1132FD000DD96E01F2B00DD9FE02026F31A26007B
S1132FE09E409C46B34653463E00DE4033005E4658
S1132FF01E4363469F407B1E9F415346DC4037433C
S1133000BF189742924164185242A418060078E609
S113301027437C1EA741002437E74C4EB04236D0EC
S113302080265B4236049A463443CFE718001043A7
S113303000D103E6B81A84466745AD41E01A6D42F3
S1133040401B050200D42CE6D71BBA4292411C1B3C
S11330505242A41AD846F1E51800104300D163E7A0
S1133060F808670707438020E4080003044208D0F7
S1133070DD08054205D1D208590711430F002C0081
S1133080D8467B0FE4001C43FF00304ED6E50C000D
S113309017000600D2E5002B38D00B00134300D1F3
S11330A042E7F808670707438020E4080003044266
S11330B0E7D0CB080342E4D1D208490711430F00FB
S11330C01C00DEE700270024D5E500216BE700257E
S11330D00027F3E54E462500203EF5404B462E00E2
S11330E0202B2DD04025ED1AAC4027437C1EA74150
S11330F000243743C9E6802400252403134E002707
S1133100DCE527437C1EA741002479E70C00170067
S11331100E4E93E50C00170090E556462300203E22
S1133120F34099465346202B0ED0402356469B1B12
S11331309C4027437C1EA7414B4600241F435FE766
S11331400024D2E71700B2E50024F2E7FF070000ED
S1133150FFFF7FFFF0B557464546DE464E46E0B5D5
S11331604C000E0387B0834692461D008046360B02
S1133170640DCF0F002C4FD06F4B9C4235D0802371
S1133180420F1B04F600134333439946C300984689
S11331906A4B00269C460023644403932B031B0BB9
S11331A09B466B00ED0F50465B0D01955ED0624A65
S11331B0934253D05A46D1008022400F1204024356
S11331C00A4393465246D1005C4A94460022634423
S11331D03800684084460290E41A16430F2E00D942
S11331E0B4E0574BB6009B599F46030033439946BE
S11331F06CD100239846023308260393CEE7CB46CE
S11332004146039A0197022A65D1019B4A4C9C4688
S11332100023002298466BE00300334399464ED0C6
S1133220002E00D1BCE1300001F026FA03000B3B74
S11332301C2B00DDACE11D22D31A5A460100DA40F2
S113324008398E401300334399465B468B409846B9
S113325000233C4C0026241A03939FE751465A4608
S1133260114329D1002293460232B1E75946014362
S11332701ED05B46002B00D19EE1584601F0FCF9BC
S113328003000B3B1C2B00DD8FE102005946083A7A
S113329091408B461D21CB1A5146D9400B0059460B
S11332A00B4351469B469140264B00221B1A8FE745
S11332B0002301229B468BE75146032288E7002323
S11332C09846013304260024039367E70323B14699
S11332D003930C2662E7032A00D15CE2019B012AD6
S11332E000D0E4E113409C460023002400229846C9
S11332F000211203130B0A0D12051A432305124C65
S113330040462240134362465B00D2075B081343E6
S1133310190007B03CBC90469946A246AB46F0BDA6
S1133320002380229C4612039846034CE0E70023C6
S1133330014C00229846DBE7FF07000001FCFFFF79
S1133340E88F00000DFCFFFFFFFF0F80D94500D977
S113335039E100D134E1002346464D469A46013C0A
S11333605B460A0E1B021A430B02170C0393130449
S11333701B0C3900280090460193FEF76FFB0200F6
S1133380019B83465A43280039009146FEF7ECFB23
S1133390350C09040D43A9450DD95B464544013B51
S11333A0A84500D93AE1A94500D837E102235B4298
S11333B09C464544E3444B46EB1A390018000493F9
S11333C0FEF74CFB019B05004343390004989946E2
S11333D0FEF7CAFB330409041B0C0B43994509D9B6
S11333E043446A1E984500D91AE1994500D817E16B
S11333F0023D43444A469B1A5A4612042A430399FF
S11334009346100C0A0C914609045A46090C4E4680
S11334100D001204120C454305915143724370434D
S113342052190E0CB218954203D980256D02AC4690
S11334306044150C09041204090C2818521883421C
S113344000D2CEE000D1C8E01D1A53469E1AB24500
S113345092415242AB1A9A46984500D117E139007D
S11334601800FEF7FBFA019B050043433900504660
S11334700493FEF779FB04980B04310C194388423A
S113348009D941446B1E884500D907E1884200D818
S113349004E1023D4144049BCB1A18003900049313
S11334A0FEF7DCFA019B82464343390004980193FA
S11334B0FEF75AFB01980B043104090C19438842A6
S11334C00DD953464144013B884500D9E8E0884280
S11334D000D8E5E002235B429C464144E244019B60
S11334E02D04CE1A51462943059D4F462A000B044C
S11334F0080C1B0C5A4345437B4378435B19170C58
S1133500FB189D4203D980256D02AC4660441D0C16
S113351012041B04120C28189B18864200D293E054
S113352000D18EE001231943A04BE318002B00DCEB
S113353099E04A0700D09EE05A46D20106D55A4681
S11335409B4B1A4080239346DB00E318994A93422D
S113355068DD0123029A984C1A4000239446984649
S11335600022C5E680224B46120313420AD05B4672
S1133570134206D11A431203120BAC4688468E4CF2
S1133580B6E64B461A431203120BBC468A4CAFE60E
S113359003005A46283B9A4000239146984657E632
S11335A0584601F069F8203040E603005246283BB3
S11335B09A400021934677E601F05EF820305FE6FA
S11335C0884500D2C7E64B46DE075D0843465B08E4
S11335D01E434346DB079A46C2E60025924500D3C4
S11335E033E7039E5946B446E244B245AD416D42C9
S11335F04544EB180139984507D2984200D97FE039
S113360000D1BCE01D1A8B461FE79845FAD1039DF3
S11336105545F2D943468B461D1A16E79B46CAE622
S11336201500E7E65A46C90852070A435B05904667
S11336305C0D5A460123029952021940120B8C4622
S113364056E6002B00D16FE746444A1EB04529D9FF
S11336501100864200D065E7039A934200D061E7E7
S113366062E7012149420120C21A382A21DD029B66
S113367003409C4638E60F220A40042A00D15BE747
S11336800A00111D914292415242934454E7474B20
S1133690E318002BE5DD01225242F2E71D00FAE6B1
S11336A09A461CE7B04239D86ED011003AE702932B
S11336B03AE71F2A3CDC20239B1A0C005846994009
S11336C098404B1E99415B46D440D3402043084365
S11336D01A00430709D00F230340042B05D001002F
S11336E0081D88429B415B42D21813023AD501233C
S11336F0029A01241A400023944698460022F7E5D2
S1133700022149428C46039DE344AC46E244AA4567
S1133710AD416D424544ED182D1A96E68A1E039973
S11337204D008D42894149424144761803958FE703
S11337301F204042C31A5846D8400300202A28D0EC
S113374040205D46821A954029434A1E91411943FF
S1133750072300220B4009D00F2300220B4008004E
S1133760042BBDD1010053075202120BC90819439F
S1133770012388460299002419408C46B8E5524535
S1133780BED88B46002560E6039D9D42C6D311003A
S113379062E70025D8E780225B4612031A43019BA7
S11337A01203120B9C468846034CA1E5FF0300005C
S11337B0FFFFFFFEFE070000FF070000F0B55746BD
S11337C04546DE464E46E0B50C0398464E00230BB4
S11337D087B0070092469B46760DCD0F002E6BD026
S11337E06D4B9E4235D080245B46420F2404DB009F
S11337F014431C43C3009946684BA3469C460023CC
S113380000276644029343461C035A00DB0F5046CC
S1133810240B520D984600D176E05F4B9A426DD04E
S11338208023410F1B040B435C49E4008C461C437A
S1133830C300002062444146B6186940721C0191DD
S1133840944607430F2F00D9B0E0554ABF00D25920
S113385097465B460343994600D087E000239B4686
S1133860023308270293CEE742460192022867D02A
S1133870032800D10EE2012800D062E100230024D5
S11338800022994601990140CDB2002112030B0D8B
S1133890120B1B051343434A240513401C436400C5
S11338A0ED0764082C434846210007B03CBC904611
S11338B09946A246AB46F0BD034399464FD05B46BA
S11338C0002B00D189E1584600F0D6FE03000B3BE3
S11338D01C2B00DD7AE11D22D31A3A0001005C465C
S11338E0DA4008398C4013008F4023439B46B94685
S11338F000232D4E0027361A029384E753462343B0
S11339002AD10024022096E75346234320D0002CDA
S113391000D157E1200000F0AFFE03000B3B1C2B4D
S113392000DD49E11D21CB1A51460200D94053461E
S1133930083A944093400C431B4A121A00207AE739
S11339400125019B144C1D400023002299469CE74D
S11339500024002201206EE7534603206BE7002376
S11339609B4601330427002602934CE70323814638
S11339700C27029347E7802200230025120399466F
S1133980054C82E75C464B4602986FE75C464B4623
S1133990019502986AE7C046FF07000001FCFFFF9B
S11339A028900000FFFF0F800DFCFFFF4A464946A8
S11339B0170C1A0C1B041B0C08041900000C4143BF
S11339C01500884619007D437943039589462900EB
S11339D0150045434D44029545462D0CAA46029DCB
S11339E05544A94506D98A46802149028946CA44D4
S11339F051460391290C0491414609042D04090CF4
S1133A0088462900250C24044144240C05912100F6
S1133A1041438846210079438A46684341465044DD
S1133A208146080C48446F43824503D980214902EA
S1133A3089464F44010C8946390049440291414664
S1133A400F0404993F0C88460004C0198044414681
S1133A50049159460F0C0904090C884659438A46B7
S1133A6039005143894641464A435146090C8B4625
S1133A707B43D2185A44934203D980235B029B466A
S1133A80D94451460904090C8A46414661437C43A2
S1133A90130C12044B445244A1468A463C0041464E
S1133AA06C434D4351464D440F0C7D19A94503D930
S1133AB08021490288464444049F0399B8464144FE
S1133AC08B468345804141428846514608042F0471
S1133AD0000C3F18584602991018894690429241AA
S1133AE04F44BA46524299469346C244D144CB44C9
S1133AF08F42BF41C245894199459B4193459241BB
S1133B007F4249422D0C52420F435B4213437F19BB
S1133B10FF185B463C19DB0D059A64021C43430203
S1133B2013435D1EAB415A46C00D03435202134377
S1133B30E20156D501205A0803401343E207134318
S1133B4064085A48604400284DDD5A0709D00F2202
S1133B501A40042A05D01A1D9A429B415B42E4187C
S1133B601300E20104D58020514AC000144060448F
S1133B70504A904200DDE3E60125DB0862071A4360
S1133B806402019B9146220B4405640D1D407CE6B2
S1133B90802259461203114208D0144206D122430E
S1133BA01203120B45469946434C6EE65B461A4394
S1133BB01203120B404C68E603005446283B9C4019
S1133BC00023B9E600F058FD2030A6E60300283BA8
S1133BD09F400023BB4699468AE600F04DFD203005
S1133BE074E6B446ADE701252A1A382A06DD019B9E
S1133BF000241D4000230022994646E61F2A21DCAA
S1133C0020252000AD1A1E00AB40A840D6405D1E02
S1133C10AB4130431843D440430709D00F2303403A
S1133C20042B05D00300181D98429B415B42E41805
S1133C30230221D50125019B01241D4000230022DC
S1133C40994622E61F2521006D42281AC14008002A
S1133C50202A1DD05F35AA1A944023435C1EA34139
S1133C60072503431D400022002D09D00F22002404
S1133C701A401800042AD6D1030065076402220BF7
S1133C80DB082B4301259946019B00241D40FCE5DC
S1133C900024E2E780220125120322430199120342
S1133CA0120B0D409946044CEFE5C046FF0300009B
S1133CB0FFFFFFFEFE070000FF070000F0B54646C9
S1133CC0D6464F460C03C0B5CD0F4E00610A440FD3
S1133CD00C43C1005800400D84468A460F00190366
S1133CE0500F490A0143C648760DA846DB0FD2009F
S1133CF0844500D1D8E001204340AB4200D1A6E086
S1133D006046351A002D00DC05E1002810D10B00B7
S1133D10134300D1D7E06B1E002B00D04BE1534678
S1133D209F1ABA458041641A4042241A01261EE0B3
S1133D30B34B9E4248D080231B041943382D00DD29
S1133D4019E11F2D00DD4CE120230F005B1B100047
S1133D509A409F40E840531E9A41E9400743174365
S1133D605346DF1B611ABA45A44164420C1B23026B
S1133D7000D4C5E06402650A002D00D1F6E02800F5
S1133D8000F07AFC0300083B1F2B00DDE9E0202251
S1133D903C00D21A9D40D4409F4025439E4200DD02
S1133DA0DBE09E1B731C1F2B00DD0AE12022380080
S1133DB0D21A290097402C009140D8407A1E97418E
S1133DC0DC40002601430F437B0709D00F233B400F
S1133DD0042B05D03B1DBB42BF417F42E4191F00A9
S1133DE0230225D5864B01369E4200D1AFE0854B98
S1133DF001251C4043466207FF0864027605174309
S1133E00240B760D1D4000212403230B0C0D7E4A48
S1133E1024051C431440330523435B00ED075B0872
S1133E202B43380019001CBC90469946A246F0BDAD
S1133E30012543466207FF081743E4081D40704B01
S1133E409E4236D024037605240B760DDBE76346C9
S1133E50F31A002B00DC94E06046002835D0684853
S1133E608642B1D080273F043943382B00DCFDE083
S1133E700A43170000217A1E974157445745804151
S1133E80091944420C1923023AD55D4B01369E426E
S1133E9000D14BE101225B4B1C407B0817401F43C0
S1133EA0E207174364088FE70800104300D024E7B3
S1133EB021E723003B4300D1B9E1802212031443DC
S1133EC02403240B9FE72E007EE70800104300D153
S1133ED0CAE0581E8446002800D0E7E05244524508
S1133EE0804164184042241817000126230207D594
S1133EF00226CFE764462C4300D1B3E12C00674689
S1133F007B0700D062E76307FF081F430125434690
S1133F10E4081D4093E7002D78D1751C6D056D0DE7
S1133F20012D00DCF2E05046801A8245BF41651A3B
S1133F307F42ED1B8446280200D48CE05046171AB9
S1133F40BA4292410C1B5542651B984614E7012561
S1133F50434600241D40002755E72A4CF61A2C40FE
S1133F6032E73D0028388540002717E7380000F085
S1133F7083FB203006E70A43170000217A1E97418D
S1133F80EEE6002B00D0E5E0731C9C465B055B0D60
S1133F90012B00DC9FE01A4B9C4500D1C5E0524444
S1133FA052458041641840422418E70752081743D9
S1133FB06408664608E71248854200D185E01D0082
S1133FC0BCE629001F3EF140202B00D17FE04022B7
S1133FD0D31A9D402F437D1EAF4100240F4300267A
S1133FE08EE72B000F00203BDF40202D71D04023B3
S1133FF05D1BA9400A43511E8A4100211743AFE6C5
S1134000FF070000FFFF7FFFFFFF0F80002E3ED061
S1134010B34EB44545D0802636046D423443382D22
S113402000DDA8E01F2D00DD1FE1202627005046FB
S1134030761BB740E84007435046B040461EB041A7
S1134040EC403843171ABA4292410C1B5242A41A4C
S1134050664698468BE6644667462C4300D08BE65A
S1134060002500260027EAE61E00ADE61F2B60DCD3
S11340702027F81A0F00844687401000D8400743D1
S113408060468240501E8241D9401743F5E626001F
S11340905046064305D0ED43002DD3D0904EB44591
S11340A0BDD10C001700664698468DE68C488342C5
S11340B00BD06346D9E6002D00D096E008001043EB
S11340C000D1E2E00C0017009846854E7CE60025FE
S11340D080E700218EE7230050460343002E00D0E2
S11340E0A8E0002B00D1DEE00B00134300D16BE607
S11340F05244524580416418404224181700230258
S113410000D4FDE6774B66461C405DE6250050462C
S11341100543002ECFD1002D4FD10C00144300D104
S1134120A0E00C00170098464EE6664600240027DF
S113413085E61F000800203FF8400700202B00D12F
S11341408EE04020C31A99400A43511E8A4100213F
S1134150174392E6002E14D126005046064362D03F
S1134160DB43002B5CD1871897429241641852427A
S1134170A418664687E650462043441EA041002406
S113418060E7574EB4454ED0802636045B42344334
S1134190382B00DD7FE01F2B00DD8BE0202627007D
S11341A05046F61AB740D84007435046B040461E22
S11341B0B0410743DC40BF18D6E70D00154300D1DA
S11341C002E65046801A8245BF41651A7F42ED1BC4
S11341D08446280200D48DE65046171ABA4292410A
S11341E00C1B5242A41A9846EEE50D00154300D16B
S11341F06BE750466707C00807438020E4080003C4
S1134200044207D0CD08054204D12C009846D708B3
S113421049070F437B0FE4001C43FF00304ED3E5F6
S11342202F4EB445B4D10C0017006646CCE50027E8
S11342300024E8E5002B39D00B00134300D144E7F8
S1134240C008670707438020E40800030442E1D064
S1134250CB080342DED1D70849070F431C00D9E736
S1134260002171E700250027E9E52E002700203E04
S1134270F740202D2FD04026751BAC4050462043DC
S1134280441EA04100243843DCE680240025240396
S1134290134E0027D3E5504620430700781E87417C
S11342A00024BF1860E70C0017008DE50C00170010
S11342B00B4E89E51E002700203EF740202B0CD032
S11342C04026F31A9C4050462043441EA041074315
S11342D00024BF1848E70024D0E70024F3E7C046D1
S11342E0FF070000FFFF7FFF30B5134D0A034B00AB
S11342F0120B5B0DC90F0024AB4210DD0F4CA3421F
S11343000FDC80240E4D64032243ED1A1F2D0BDDB8
S11343100C48C31ADA405442002900D1140020008A
S113432030BD094BCC18FAE7084CE840A446634476
S11343309A400243EFE7C046FE0300001D0400005C
S11343403304000013040000FFFFFF7FEDFBFFFFB9
S113435070B5002830D0C317C4185C40C50F2000C6
S113436000F08AF9174B184A1B1AD21A1F2A18DDB3
S1134370164AD21A9440002224035B05240B5B0DD9
S11343800021100024030A0D240B12052243104CB3
S11343901B05224013435B00ED075B082B43190008
S11343A070BD210091400A000B21081AC4405B052E
S11343B02403240B5B0DE3E70025002300240022E3
S11343C0DEE7C0461E0400003304000013040000AE
S11343D0FFFF0F8010B5041E28D000F04DF9154BD7
S11343E0154A1B1AD21A1F2A15DD144AD21A9440F0
S11343F0002224035B05240B5B0D00211000240321
S11344000A0D240B120522430D4C1B0522401343B5
S11344105B00590810BD210091400A000B21081AC5
S1134420C4405B052403240B5B0DE6E70023002452
S11344300022E2E71E04000033040000130400001D
S1134440FFFF0F804100090E4B1C70B5DBB2460222
S1134450750AC40F012B14DDE0239B006D07360B96
S1134460CB1800210A0D280012051C4D32435B05B0
S11344702A405B0813435B00E4075B0823431900ED
S113448070BD002914D1002D1ED0280000F0F4F8CE
S11344900A281CDC0B232A001B1ADA4003001533FC
S11344A09D400F4B12031B1A5B05160B5B0DD8E7DF
S11344B0002D06D0320B802636036D071643094BB8
S11344C0CFE7084B0026CCE700230026C9E703000A
S11344D02A000B3B9A400025E3E7C046FFFF0F800C
S11344E089030000FF070000F0B54C00640D0B03C6
S11344F0621C450F5B0A52052B43C90FC500520DC0
S1134500012A28DD3A4AA618FE2E1BDC002E3EDDC9
S113451080010200501E82416D0F2A43DB001343C9
S11345205A0704D00F221A40042A00D004338022F0
S1134530D2041A405AD00136FF2E03D09B015B0AE5
S1134540F4B201E0FF2400235802E405400AC9073D
S113455020430843F0BD002C07D01D43F2D0802037
S1134560DB0080040343FF26DAE72B4303D0052353
S1134570DB08FF2C03D05B025B0AE4B2E4E7002B08
S113458032D08020C00303435B025B0ADCE73200C5
S1134590173214DB80221E2712041343BF1B1F2F64
S11345A00FDC144A944664442A00A5402E00A3401C
S11345B0751EAE41FA40334313430026B0E700248E
S11345C0D5E702225242961B1A00F240202F09D04E
S11345D0094884466444A3402B435D1EAB41002636
S11345E013439DE70023F7E70023ADE73400BFE75B
S11345F080FCFFFF82FCFFFFA2FCFFFF8446101C2F
S113460062468C46191C634600E0C0461FB500F0A4
S1134610FBF8002801D40021C8421FBD10B500F0EA
S113462055F84042013010BD10B500F0EDF80028F7
S113463001DB002010BD012010BDC04610B500F004
S1134640E3F8002801DD002010BD012010BDC046A4
S113465010B500F075F8002801DC002010BD012021
S113466010BDC04610B500F06BF8002801DA002038
S113467010BD012010BDC0461C2101231B0498421B
S113468001D3000C10391B0A984201D3000A0839DF
S11346901B09984201D30009043902A2105C401896
S11346A07047C0460403020201010101000000003A
S11346B00000000010B5002903D1FFF7DDFF203012
S11346C002E0081CFFF7D8FF10BDC046F0B54F4606
S11346D04646D6465C00C0B51F03DB0F9A46174B0F
S11346E00E034D0084468046360B6D0DC90F91466E
S11346F03F0B640D01209D4208D09C4201D0A5428D
S11347000BD01CBC90469946A246F0BD6346334389
S1134710F7D1AC42F5D13A43F3D10120BE42F0D1F6
S1134720C845EED1514507D0002DEAD163461E435A
S11347303000461EB041E4E70020E2E7FF07000036
S1134740F0B54546DE4657464E46E0B51F033D0BE1
S11347502C4F0E034C00AB465D008446360B640DB3
S1134760C90F90466D0DDB0FBC422AD0254FBD42C8
S11347702DD0002C0FD13043070081467842784178
S1134780C0B2002D17D15F463A4314D14B460020E6
S1134790002B0AD006E0002D02D15846024301D076
S11347A0994218D04842012108433CBC904699469E
S11347B0A246AB46F0BD0028F2D00120013B1843CD
S11347C0F3E737000743D1D002204042EDE75F46CC
S11347D01743CED0F8E7AC42E4DC03DA481E0121EB
S11347E00843E2E75E45DDD806D000205E45DCD212
S11347F00123481E1843D8E7C445D3D80020C44534
S1134800F6D3D2E7FF070000F0B54E464546DE4634
S113481057465C00E0B51F03DB0F99462A4B0E0395
S11348204D00C90F8446360B6D0D8B4690463F0BE9
S1134830640D9D4220D0244B9C4222D0002D12D1E5
S1134840304343424341DBB2002C1FD0002B0CD039
S11348504B460120013B034318003CBC904699465B
S1134860A246AB46F0BD002C16D0CB4517D05B4614
S1134870594201230B43EFE7310002230143EBD1FB
S1134880D9E7390002231143E6D1D7E73A43DDD112
S113489000230028E0D0EAE73A43E6D1E7E7A5425F
S11348A0E5DC05DBBE42E2D807D00023BE42D3D20A
S11348B05946012301390B43CEE7C445D7D8002319
S11348C0C445F5D3C8E7C046FF07000070B50D4ED8
S11348D00D4D0024AD1BAD1005D0A300F3580134D9
S11348E09847A542F9D104F0B5FD084E084D0024BF
S11348F0AD1BAD1005D0A300F35801349847A54271
S1134900F9D170BD609400006094000060940000D0
S113491068940000F0B505000F2A2FD90B0003435B
S11349209B0734D116000C000300103E35090135F5
S11349302D01451927681F6067685F60A7689F603D
S1134940E7681034DF6010339D42F3D10F239E4398
S11349501036851989191340032B1AD91E1F0023F9
S1134960B4080134A400CF58EF500433A342FAD161
S11349700324A643331D2240C918ED18002A05D08C
S11349800023CC5CEC5401339342FAD1F0BD050012
S1134990F6E71A00F2E7C046F0B5830743D0541E89
S11349A0002A3FD0CEB20200032502E01A00013CE7
S11349B038D3531C16702B42F8D1032C2AD9FF226A
S11349C00A40150215432A0415430F2C14D9270055
S11349D01A00103F3E09013636019E1915605560D4
S11349E09560D56010329642F8D10F229743103764
S11349F0DB191440032C0DD91A00271FBE080136F9
S1134A00B6009E1920C2B242FCD103229743043758
S1134A10DB191440002C05D0C9B21C1919700133DC
S1134A209C42FBD1F0BD14000300C6E710B5830718
S1134A3025D00378002B24D00300032102E01A7848
S1134A40002A1AD001330B42F9D119680E4A0F4CCF
S1134A508A188A43224206D1043319680A4A8A18FA
S1134A608A432242F8D01A001B78002B03D001326B
S1134A7011780029FBD1101A10BD181AFCE70300A5
S1134A80E3E70020F8E7C046FFFEFEFE808080805A
S1134A900B000343F0B59B0701D1032A14D8060089
S1134AA0002A10D00C78013A731C3470002C1DD0ED
S1134AB0012406E00D5D013A355501330134002D22
S1134AC014D0002AF6D1F0BD05000D4F06E0043ADB
S1134AD02E1D04312C60032AE2D935000C68094BE1
S1134AE0E318A3433B42F2D02E00DBE79C180021DD
S1134AF0002AE8D019700133A342FBD1E3E7C04692
S1134B0080808080FFFEFEFE30B504009BB018005C
S1134B10002A2EDB82236D469B00AB810091049119
S1134B20002A11D00123013A5B4202920592EB81E3
S1134B3002001E9B6946200002F06AF8431C12DB47
S1134B400023009A13700CE001235B420292059249
S1134B50EB8102001E9B6946200002F059F8431CB9
S1134B6004DB1BB030BD8B232360E9E78B23236078
S1134B70F7E78B23012023604042F2E710B50400DD
S1134B80054882B00068009313000A002100FFF773
S1134B90BBFF02B010BDC04600000020034B10B59F
S1134BA0002B02D0024800F005F810BD0000000000
S1134BB0A15C000010B5010000230022002003F0D6
S1134BC02BFB10BDF0B545468046DE4657464E46A3
S1134BD04246E0B50C69126985B00B0002910020D1
S1134BE0944200DD90E014229446634499464A4678
S1134BF0013CA300D6181422424493469B443368D4
S1134C001500591C5B4618680192FCF727FF031E28
S1134C10009042D0290000274D460020B146A2460C
S1134C203E0004009C462F0008000395634604CF11
S1134C3015042D0C5D43120C5A43AD192B0CD218DC
S1134C4003682D041904090C0919160C2D0C1204FF
S1134C50491B120C1B0C9B1A0A149B1809041C14E4
S1134C60090C1B04194302C0B945DFD2039B4E460D
S1134C7099465B461B685446002B0ED15B46019A4D
S1134C80043B9A4204D306E0043B013C9A4202D21C
S1134C9019680029F8D043461C610299404601F086
S1134CA091FE00282FDB4F460020009B019D01331D
S1134CB000932B6802CF1A04120C10180A04120C69
S1134CC0821A090C1B0C5B1A11145B1812041814B9
S1134CD0120C1B04134308C5BE42EAD20199A30077
S1134CE08C4663441A68002A0DD1043B0A00994299
S1134CF004D306E0043B013C9A4202D2196800291D
S1134D00F8D043461C61009805B03CBC90469946D7
S1134D10A246AB46F0BDC046F0B557464E464546A2
S1134D20DE46E0B5016C99B082461D0016001F00F6
S1134D30002909D00123426C93404A608B6001F042
S1134D4035FC002352461364B846002F37DB00239A
S1134D50259A13604246D64B1A409A4218D0002234
S1134D60002330003900FFF759FC00282FD001231D
S1134D70249A1360269B002B00D12AE2CD481860A8
S1134D80013819B03CBC90469946A246AB46F0BDEA
S1134D90C94B249A1360002E0BD14346180308D143
S1134DA0269BC648002BECD003000833269A1360D8
S1134DB0E7E7269BC248002BE3D0C31CF6E7012398
S1134DC0259A68001360430898461F00C2E716AB93
S1134DD0019317AB009332003B00504601F0A8FE4C
S1134DE0434683461A0D00D1D6E13B03B54C1B0B59
S1134DF01C43B54B30009846169B2100994600236E
S1134E0090440F930022B14BFEF758FFB04AB14BC8
S1134E10FEF7D4FCB04AB14BFDF78CFE04004046CB
S1134E200D00FFF795FAAE4AAE4BFEF7C7FC020041
S1134E300B0020002900FDF77DFE04000D00FFF7A4
S1134E4053FA00220390002320002900FFF7ECFB13
S1134E50002800D0B1E20123039C0C93162C10D837
S1134E60A149E300C9183200086849683B00FFF70C
S1134E70EFFB002800D11DE32300013B0393002333
S1134E800C934B4642469A1A002306931300013BA7
S1134E90049300D5A1E2039B002B00DA84E29C4634
S1134EA00D930023049A9946110061440491229BB6
S1134EB0092B00D98FE10124052B02DD0024043BDA
S1134EC02293229B032B01D100F0CEFC01DC00F0E5
S1134ED092FC229B042B01D100F040FC01230B9394
S1134EE0229B052B01D000F08BFC239A039B944654
S1134EF063440E93013307931D1E01DC00F049FD4A
S1134F00079B98460023524600215364172D0AD963
S1134F10012204335B001800143011000132854271
S1134F20F8D253465964504601F018FB53461864AE
S1134F3043460A900E2B00D961E1002C00D15EE1BA
S1134F4010961197039E002E01DC00F025FD32001F
S1134F500F21654B0A40D2009B1836111C685D680E
S1134F60F30601D400F0CAFC604B0E401A6A5B6A77
S1134F7010981199FEF7EEF80323984608900991CA
S1134F80002E11D0594F0123334209D09C463A6870
S1134F907B6820002900E044FEF710FC04000D00AB
S1134FA076100837002EEED12200089809992B00BC
S1134FB0FEF7D0F806000F000C9B002B09D000224E
S1134FC0404B30003900FFF72FFB002801D000F0E0
S1134FD0C2FD4046FFF7BCF932003B00FEF7EEFB92
S1134FE00022434BFDF7A6FD424A0B00944663445E
S1134FF0089009910993079B002B01D100F050FC04
S1135000039B1393079B12930B9B002B01D100F07E
S11350101DFD129B00205A1E334BD2009B181A68A8
S11350205B683549FEF796F8089A099BFEF746FE39
S11350300890099139003000FFF756F90400FFF792
S113504087F902000B0030003900FEF737FE050037
S11350500E000A9A3034511CE7B2149117703300D1
S1135060089809992A00FFF7F3FA002801D000F004
S1135070FEFD2A00330000201249FEF71FFE020045
S11350800B0008980999FFF7E3FA002801D000F013
S1135090E7FD129B012B01D100F078FC0A9A129BC8
S11350A09446634498464B461293149B994638E0C1
S11350B00000F07F798E00000F2700006C90000044
S11350C0789000000000F03F01FCFFFF0000F83F73
S11350D061436F63A787D23FB3C8608B288AC63FFA
S11350E0FB799F501344D33FA890000080900000A8
S11350F000001C400000C0FC0000E03F2A00330018
S11351000020B949FEF7DAFD089A099BFFF78CFAEB
S1135110002801D000F074FDA146444501D100F0FF
S113512033FC089809990022B04BFEF747FB002294
S1135130AE4B0890099128003100FEF73FFB0D00AB
S11351400400FFF7D1F80700FFF702F902000B0093
S113515020002900FEF7B2FD4B463037FFB25C1C3D
S11351601F70089A099B05000E00FFF75DFA0028DE
S1135170C4D0139B03935946504601F017FA0023F9
S11351802370039B249A01331360269B002B00D1C8
S1135190A8E31C600A98F4E5169B9946179B4B44B8
S11351A01C00934BE318202B00DC7EE13100914A74
S11351B04046A218D1400A004021CB1A984010431F
S11351C0FFF708F9631E984601238B4D0F93491985
S11351D018E68A48D5E50023524600215364504618
S11351E001F0BCF95346186401235B4207930E9304
S11351F0023300220B9300230A9023922293179BDD
S1135200002B00DAABE0039A0E2A00DDA7E07C4B0A
S1135210D2009B185C681B6804930594239B002BA5
S113522000DAA7E2049C059D300022002B0039001F
S1135230FDF790FFFFF758F88046FFF789F8220042
S11352402B00FEF7BBFA02000B0030003900FEF71A
S113525035FD43460A9A30331370079B06000F004E
S1135260541C012B4ED00022604BFEF7A7FA0022FB
S1135270002306000F00FFF7D1F9002800D07AE7D9
S11352800A9B079A9D1C9C465B46069353466244C0
S1135290AA46049C059D914607930FE00022534BB8
S11352A0FEF78CFA01239C460022002306000F001F
S11352B0E244FFF7B3F9002800D0D9E222002B0022
S11352C030003900FDF746FFFFF70EF88046FFF780
S11352D03FF822002B00FEF771FA02000B003000A9
S11352E03900FEF7EBFC53464246013B30320600E0
S11352F00F00D3461A70D145D0D1069B54469B4625
S1135300079B9A4632003B0030003900FDF712FC3F
S113531006000F0002000B0004980599FFF784F9BA
S113532000280CD10498059932003B00FFF776F968
S1135330002800D11FE74346DB0700D41BE7651EA6
S11353402F780A9B06E09D4200D151E3023C277866
S11353502C00013D392FF6D001372F700BE70B9A43
S1135360002A4FD0229A012A00DC2CE2079B5C1E03
S11353704B46A14500DAB8E21C1B079B002B00DA60
S1135380D4E3069B0893079B069A012194469C4408
S113539062460692049A504694469C44634604939B
S11353A001F09CF9804632E0069A039BD21A5B42D4
S11353B09946002306920D9379E50398FEF7C8FFFA
S11353C00B00020029002000FFF728F902005042D8
S11353D05041039B1B1A03933DE501239B1A06933B
S11353E00023049357E5C0460000F03F000024402A
S11353F03204000012040000000010FE788E000049
S1135400A8900000069B4C460893002398460899F0
S11354100B1E0EDD049A002A0BDD934200DD87E1AA
S1135420069AD21A0692089AD21A0892049AD31AA1
S113543004934B46002B1AD00B9B002B00D1BBE1ED
S1135440002C10DD41462200504601F0FBF95A467B
S113545001008046504601F04BF90500594650467C
S113546001F0A4F8AB464B461A1B00D0A5E101217C
S1135470504601F033F90D9B8146002B1DDD1A00C7
S11354800100504601F0DEF9229B8146012B00DC2D
S113549050E100244B461B6903339B004B4458687E
S11354A001F0D4F820231B1A10E020223000D31A74
S11354B0984085E600230C93E3E4229B0024012B0F
S11354C000DC8BE10D9A0123002AE3D104991F200B
S11354D08C466344184000D1AEE020231B1A042BF1
S11354E000DCCCE31C23181A069B9C4684446346C8
S11354F00693089B9C46844463468C4684440893E4
S113550063460493069B002B05DD59461A0050465A
S113551001F0F8F98346049B002B05DD49461A0087
S1135520504601F0EFF981460C9B002B00D094E02B
S1135530079B002B00DC75E10B9B002B00D1A6E040
S1135540089B002B05DD41461A00504601F0DAF9AC
S1135550804643460C93002C00D050E2079C0A9AE4
S1135560013C23009446634408930123334007938A
S11355704B4606930C9B574645465E4692469846D4
S1135580069B300019009946FFF71CFB03000B90A3
S1135590303329003000049301F014FA4946040022
S11355A04246380001F028FAC3688146002B00D037
S11355B01EE10100300001F005FA83464946380037
S11355C000F0F4FF5B46229A134303D1079B002BA0
S11355D000D106E3002C00DAA8E1229B1C4303D18E
S11355E0079B002B00D1A1E15B46002B00DD82E28A
S11355F0694652465346097C5C1C1170089A524510
S113560000D18AE2310000230A22380000F0D8FFDA
S1135610002306000A2229003800454500D1E1E0B4
S113562000F0CEFF4146050000230A22380000F0B6
S1135630C7FFA2468046A3E71C20069B9C468444E1
S113564063460693089B9C46844463460893049BE4
S11356509C4684446346049354E74946584601F003
S1135660B1F9002800DB63E7039B5946013B039330
S11356700A220023504600F0A3FF0B9B8346002B15
S113568000D0CAE20E9B002B00DCD8E207930A9BF1
S11356905D460024079F9B4606E0290000230A225A
S11356A0504600F08DFF050049462800FFF78AFAAE
S11356B05B46303018550134BC42EEDBAB46060085
S11356C0079C002C00DC37E20A9B00279C466444BC
S11356D059460122504601F015F94946834601F026
S11356E071F9002800DC44E1651E2B780A9A06E073
S11356F0954200D1B1E0023C23782C00013D392BC6
S1135700F6D001332B704946504600F04FFF434614
S1135710002B00D12FE5002F05D0474503D03900D9
S1135720504600F043FF4146504600F03FFF22E55B
S1135730130075E6002E00D0ABE63B030024002BDB
S113574000D0BFE6BA4B3B4200D1BBE6069B013416
S113575001330693049B01330493B3E601230B93B3
S1135760239B002B00DCD1E01D0098460E93079389
S1135770FFF7C8FB079B002B00DD53E500D0ADE02D
S1135780049805990022AB4BFEF718F83B00320051
S1135790FEF768FF002399469846002855D0239BBE
S11357A00A9CDB4303934946504600F0FFFE434600
S11357B0002B00D1DFE4B6E74A465946504601F0D3
S11357C041F8834653E60F9A002A00D1B6E19A4A7B
S11357D04C469446069A63440892D5E5002E00D0C0
S11357E070E6AAE700F0ECFEA24605008046C7E694
S11357F001239B46E2E600230B93229B022BAFD0AE
S11358000024534621005C64504600F0A7FE534632
S1135810186401235B4207930E9302330A90239486
S11358200B93ECE4229B022B00DC85E6079B002B08
S1135830B5D149460522504600F0C2FE814601001A
S1135840584601F0BFF80028A9DD31230A9A1370E5
S1135850039B541C01330393A5E7039B0A9A01336A
S11358600393312313704EE700230B93FFF73DFBA3
S1135870069B5C469B46079B9A467CE44046FEF7A3
S113588067FD32003B00FDF799FF00226B4BFDF7EB
S113589051F96B4A0B0094466344089009910993AB
S11358A00022644B30003900FEF708FA089E099F75
S11358B032003B0004000D00FEF7CAFE002800D0B1
S11358C0B2E0802000068446390061440B003200B7
S11358D020002900FEF7A8FE002857D0002399468F
S11358E098465CE70A98FFF74CFAE21A0D9BA1462A
S11358F09C469444634600240D933EE5109A119B04
S11359000892099302239846FFF73AFB0023524674
S113591000215364504600F021FE534618640123CD
S11359200A90079323930E93FFF707FB43460C93C8
S11359305B46069AA846B3465546049E9146BA4627
S1135940002B10DD59460122380000F0DBFF4946E8
S1135950834601F037F8002800DC57E1392E00D1E6
S113596022E10B9E31360C9B47466C1C2E709846E8
S1135970C9E6002803D1F30701D5B5E61C00631E70
S11359801A78302AFAD0BEE6129B9946109E119FCF
S113599035E40125FFF7B4FA039B002B00D1D4E0D2
S11359A0109811995C420F23264A2340DB00D31838
S11359B01A685B68FDF702FF241106000F00002C33
S11359C000D149E1022398461F4D0123234209D007
S11359D09C462A686B6830003900E044FDF7EEFE0F
S11359E006000F0064100835002CEED1FFF7E4FA2E
S11359F0039B30270133039330232B70ACE45968A5
S1135A00504600F0ABFD4346414604001B690C318F
S1135A109A1C92000C30FEF77DFF012221005046B3
S1135A2000F070FF0C9099E50023994698460CE726
S1135A300000F07F000014403304000000001C400C
S1135A400000C0FCA890000080900000129B8F49C9
S1135A50013BDB00C91808684968089A099BFDF7EF
S1135A60ADFE1490159139003000FEF73DFC0500A1
S1135A70FEF76EFC02000B0030003900FEF71EF941
S1135A80129B089009910A991A008C463035624499
S1135A904C1C0D709046012B1BD0089809992500C9
S1135AA000227B4BFDF78AFE0F000600FEF71CFC6C
S1135AB00400FEF74DFC303402000B0030003900C6
S1135AC0FEF7FCF82C700135A845E9D1444608904E
S1135AD009911498159900226E4BFDF72BF8089A3A
S1135AE0099BFEF7A1FD002867D0139B651E039355
S1135AF02F780A9B2EE44346B3460C93049E069BE0
S1135B00A84699465546BA46392E4DD00C9B0136C7
S1135B1047466C1C2E709846F5E54246069BB346F4
S1135B20BA46049E99462F009046D1E5069B079AF3
S1135B309B1A0893002327E40124C5E53623169A0B
S1135B404C469B1A069A08921EE40223109E119F4B
S1135B509846FFF731FA079B002B00D18EE60E9C86
S1135B60002C00DC12E7039B0022013B139330005E
S1135B70474B3900FDF722FE060040460F00013076
S1135B80FEF7E6FB32003B00FDF718FE0022424B15
S1135B90FCF7D0FF414A0B009446634408900991F6
S1135BA012940993FFF730FA39232B700C9B474664
S1135BB06C1C98460A9A3923A1E5149A159B002077
S1135BC03449FEF77BF8089A099BFEF741FD00284B
S1135BD001D1DBE61C00631E1A78302AFAD0FFF7E5
S1135BE0C8FA4346B3460C93049E069BA8469946BE
S1135BF05546BA46392ED7D0002C00DDB1E6B2E6C0
S1135C00139A4D4603920A9BFFF7A4FB002800D089
S1135C10A9E6F30700D4A6E6A0E6002341460A223B
S1135C20504600F0CDFC0E9B8046002B01DD07930F
S1135C3086E4229B022B1FDC0E9B079380E4229BAD
S1135C40022B19DC4946FEF7BDFF0A9B3030187061
S1135C500E9B0600079333E502239846FFF7ACF941
S1135C60139B149C03930A9B1D00FFF773FB139B68
S1135C70149C0393FFF77FFA0E9B0793D6E5042B3E
S1135C8000D13FE43C23181AD7E4C046A890000092
S1135C90000024400000E03F00001C400000C0FC65
S1135CA070B5094B094CE41AA41009D0084AA51888
S1135CB0AD00ED182B68013C9847043D002CF9D148
S1135CC003F0D2FB70BDC0467494000078940000C9
S1135CD0FFFFFF3FF8B50C00060000F02FFC204F3B
